{
  "transactions": [
    {
      "hash": "0xba8ef1d39f667f2607c58fabba27994b9f6b996f4ab72e0153174521279d474c",
      "transactionType": "CALL",
      "contractName": null,
      "contractAddress": "0x4200000000000000000000000000000000000006",
      "function": "deposit()",
      "arguments": [],
      "transaction": {
        "from": "0x5ecc44faeb5e64d49d798162a8bb6c70d9424f41",
        "to": "0x4200000000000000000000000000000000000006",
        "gas": "0x10050",
        "value": "0x11c37937e08000",
        "input": "0xd0e30db0",
        "nonce": "0xe",
        "chainId": "0x14a34"
      },
      "additionalContracts": [],
      "isFixedGasLimit": false
    },
    {
      "hash": "0xeb613e30e6efce92c44efc86075dabf7d269d1e0fcde4c196c2effb5a38ab343",
      "transactionType": "CALL",
      "contractName": null,
      "contractAddress": "0x4200000000000000000000000000000000000006",
      "function": "approve(address,uint256)",
      "arguments": [
        "0x000000000022D473030F116dDEE9F6B43aC78BA3",
        "5000000000000000"
      ],
      "transaction": {
        "from": "0x5ecc44faeb5e64d49d798162a8bb6c70d9424f41",
        "to": "0x4200000000000000000000000000000000000006",
        "gas": "0x106a0",
        "value": "0x0",
        "input": "0x095ea7b3000000000000000000000000000000000022d473030f116ddee9f6b43ac78ba30000000000000000000000000000000000000000000000000011c37937e08000",
        "nonce": "0xf",
        "chainId": "0x14a34"
      },
      "additionalContracts": [],
      "isFixedGasLimit": false
    },
    {
      "hash": "0x281f8ebe01991b7da72685d6f101b7663a9bb4b81147d8f10b2846ff4b519467",
      "transactionType": "CALL",
      "contractName": null,
      "contractAddress": "0x000000000022d473030f116ddee9f6b43ac78ba3",
      "function": "approve(address,address,uint160,uint48)",
      "arguments": [
        "0x4200000000000000000000000000000000000006",
        "0x492E6456D9528771018DeB9E87ef7750EF184104",
        "5000000000000000",
        "1782396596"
      ],
      "transaction": {
        "from": "0x5ecc44faeb5e64d49d798162a8bb6c70d9424f41",
        "to": "0x000000000022d473030f116ddee9f6b43ac78ba3",
        "gas": "0x10ed8",
        "value": "0x0",
        "input": "0x87517c450000000000000000000000004200000000000000000000000000000000000006000000000000000000000000492e6456d9528771018deb9e87ef7750ef1841040000000000000000000000000000000000000000000000000011c37937e08000000000000000000000000000000000000000000000000000000000006a3d36b4",
        "nonce": "0x10",
        "chainId": "0x14a34"
      },
      "additionalContracts": [],
      "isFixedGasLimit": false
    },
    {
      "hash": "0xdde9bc02c2a09d4f43eeedd076d89608c2866a92a559938cf7f9e1ebffa66eb0",
      "transactionType": "CALL",
      "contractName": null,
      "contractAddress": "0x492e6456d9528771018deb9e87ef7750ef184104",
      "function": "execute(bytes,bytes[],uint256)",
      "arguments": [
        "0x10",
        "[0x000000000000000000000000000000000000000000000000000000000000004000000000000000000000000000000000000000000000000000000000000000800000000000000000000000000000000000000000000000000000000000000003060c0f00000000000000000000000000000000000000000000000000000000000000000000000000000000000000000000000000000000000000000000000003000000000000000000000000000000000000000000000000000000000000006000000000000000000000000000000000000000000000000000000000000001e00000000000000000000000000000000000000000000000000000000000000240000000000000000000000000000000000000000000000000000000000000016000000000000000000000000000000000000000000000000000000000000000200000000000000000000000004200000000000000000000000000000000000006000000000000000000000000b200000000000000000000fbc76c40195c0cd713000000000000000000000000000000000000000000000000000000000080000000000000000000000000000000000000000000000000000000000000000000c80000000000000000000000002dcfca9529a498b3bc2a13784eb4989365e768cc00000000000000000000000000000000000000000000000000000000000000010000000000000000000000000000000000000000000000000011c37937e08000000000000000000000000000000000000000000000000000000000000000000000000000000000000000000000000000000000000000000000000000000001200000000000000000000000000000000000000000000000000000000000000000000000000000000000000000000000000000000000000000000000000000004000000000000000000000000042000000000000000000000000000000000000060000000000000000000000000000000000000000000000000011c37937e080000000000000000000000000000000000000000000000000000000000000000040000000000000000000000000b200000000000000000000fbc76c40195c0cd7130000000000000000000000000000000000000000000000000000000000000000]",
        "1782393056"
      ],
      "transaction": {
        "from": "0x5ecc44faeb5e64d49d798162a8bb6c70d9424f41",
        "to": "0x492e6456d9528771018deb9e87ef7750ef184104",
        "gas": "0x7addd",
        "value": "0x0",
        "input": "0x3593564c000000000000000000000000000000000000000000000000000000000000006000000000000000000000000000000000000000000000000000000000000000a0000000000000000000000000000000000000000000000000000000006a3d28e000000000000000000000000000000000000000000000000000000000000000011000000000000000000000000000000000000000000000000000000000000000000000000000000000000000000000000000000000000000000000000000000100000000000000000000000000000000000000000000000000000000000000200000000000000000000000000000000000000000000000000000000000000340000000000000000000000000000000000000000000000000000000000000004000000000000000000000000000000000000000000000000000000000000000800000000000000000000000000000000000000000000000000000000000000003060c0f00000000000000000000000000000000000000000000000000000000000000000000000000000000000000000000000000000000000000000000000003000000000000000000000000000000000000000000000000000000000000006000000000000000000000000000000000000000000000000000000000000001e00000000000000000000000000000000000000000000000000000000000000240000000000000000000000000000000000000000000000000000000000000016000000000000000000000000000000000000000000000000000000000000000200000000000000000000000004200000000000000000000000000000000000006000000000000000000000000b200000000000000000000fbc76c40195c0cd713000000000000000000000000000000000000000000000000000000000080000000000000000000000000000000000000000000000000000000000000000000c80000000000000000000000002dcfca9529a498b3bc2a13784eb4989365e768cc00000000000000000000000000000000000000000000000000000000000000010000000000000000000000000000000000000000000000000011c37937e08000000000000000000000000000000000000000000000000000000000000000000000000000000000000000000000000000000000000000000000000000000001200000000000000000000000000000000000000000000000000000000000000000000000000000000000000000000000000000000000000000000000000000004000000000000000000000000042000000000000000000000000000000000000060000000000000000000000000000000000000000000000000011c37937e080000000000000000000000000000000000000000000000000000000000000000040000000000000000000000000b200000000000000000000fbc76c40195c0cd7130000000000000000000000000000000000000000000000000000000000000000",
        "nonce": "0x11",
        "chainId": "0x14a34"
      },
      "additionalContracts": [],
      "isFixedGasLimit": false
    },
    {
      "hash": "0x792529dfe3b4d75b901b3853238452d21646161d48c326cd8da07c28e1a47e7c",
      "transactionType": "CALL",
      "contractName": null,
      "contractAddress": "0xb200000000000000000000fbc76c40195c0cd713",
      "function": "approve(address,uint256)",
      "arguments": [
        "0x000000000022D473030F116dDEE9F6B43aC78BA3",
        "25011213986917382719746127"
      ],
      "transaction": {
        "from": "0x5ecc44faeb5e64d49d798162a8bb6c70d9424f41",
        "to": "0xb200000000000000000000fbc76c40195c0cd713",
        "gas": "0xf610",
        "value": "0x0",
        "input": "0x095ea7b3000000000000000000000000000000000022d473030f116ddee9f6b43ac78ba300000000000000000000000000000000000000000014b054a086ba5103bf304f",
        "nonce": "0x12",
        "chainId": "0x14a34"
      },
      "additionalContracts": [],
      "isFixedGasLimit": false
    },
    {
      "hash": "0xcd81caa6ba340a3da64157d46ce782eef9d4a188311645fa7e40e4e52835b83a",
      "transactionType": "CALL",
      "contractName": null,
      "contractAddress": "0x000000000022d473030f116ddee9f6b43ac78ba3",
      "function": "approve(address,address,uint160,uint48)",
      "arguments": [
        "0xB200000000000000000000fBC76c40195c0cd713",
        "0x492E6456D9528771018DeB9E87ef7750EF184104",
        "25011213986917382719746127",
        "1782396596"
      ],
      "transaction": {
        "from": "0x5ecc44faeb5e64d49d798162a8bb6c70d9424f41",
        "to": "0x000000000022d473030f116ddee9f6b43ac78ba3",
        "gas": "0x100a3",
        "value": "0x0",
        "input": "0x87517c45000000000000000000000000b200000000000000000000fbc76c40195c0cd713000000000000000000000000492e6456d9528771018deb9e87ef7750ef18410400000000000000000000000000000000000000000014b054a086ba5103bf304f000000000000000000000000000000000000000000000000000000006a3d36b4",
        "nonce": "0x13",
        "chainId": "0x14a34"
      },
      "additionalContracts": [],
      "isFixedGasLimit": false
    },
    {
      "hash": "0x504604e5c0d58e1a3e67c6b3185c79a5c0ed16fb01167903be63903f9bfc53e7",
      "transactionType": "CALL",
      "contractName": null,
      "contractAddress": "0x492e6456d9528771018deb9e87ef7750ef184104",
      "function": "execute(bytes,bytes[],uint256)",
      "arguments": [
        "0x10",
        "[0x000000000000000000000000000000000000000000000000000000000000004000000000000000000000000000000000000000000000000000000000000000800000000000000000000000000000000000000000000000000000000000000003060c0f00000000000000000000000000000000000000000000000000000000000000000000000000000000000000000000000000000000000000000000000003000000000000000000000000000000000000000000000000000000000000006000000000000000000000000000000000000000000000000000000000000001e00000000000000000000000000000000000000000000000000000000000000240000000000000000000000000000000000000000000000000000000000000016000000000000000000000000000000000000000000000000000000000000000200000000000000000000000004200000000000000000000000000000000000006000000000000000000000000b200000000000000000000fbc76c40195c0cd713000000000000000000000000000000000000000000000000000000000080000000000000000000000000000000000000000000000000000000000000000000c80000000000000000000000002dcfca9529a498b3bc2a13784eb4989365e768cc000000000000000000000000000000000000000000000000000000000000000000000000000000000000000000000000000000000014b054a086ba5103bf304f0000000000000000000000000000000000000000000000000000000000000000000000000000000000000000000000000000000000000000000000000000012000000000000000000000000000000000000000000000000000000000000000000000000000000000000000000000000000000000000000000000000000000040000000000000000000000000b200000000000000000000fbc76c40195c0cd71300000000000000000000000000000000000000000014b054a086ba5103bf304f000000000000000000000000000000000000000000000000000000000000004000000000000000000000000042000000000000000000000000000000000000060000000000000000000000000000000000000000000000000000000000000000]",
        "1782393056"
      ],
      "transaction": {
        "from": "0x5ecc44faeb5e64d49d798162a8bb6c70d9424f41",
        "to": "0x492e6456d9528771018deb9e87ef7750ef184104",
        "gas": "0x94317",
        "value": "0x0",
        "input": "0x3593564c000000000000000000000000000000000000000000000000000000000000006000000000000000000000000000000000000000000000000000000000000000a0000000000000000000000000000000000000000000000000000000006a3d28e000000000000000000000000000000000000000000000000000000000000000011000000000000000000000000000000000000000000000000000000000000000000000000000000000000000000000000000000000000000000000000000000100000000000000000000000000000000000000000000000000000000000000200000000000000000000000000000000000000000000000000000000000000340000000000000000000000000000000000000000000000000000000000000004000000000000000000000000000000000000000000000000000000000000000800000000000000000000000000000000000000000000000000000000000000003060c0f00000000000000000000000000000000000000000000000000000000000000000000000000000000000000000000000000000000000000000000000003000000000000000000000000000000000000000000000000000000000000006000000000000000000000000000000000000000000000000000000000000001e00000000000000000000000000000000000000000000000000000000000000240000000000000000000000000000000000000000000000000000000000000016000000000000000000000000000000000000000000000000000000000000000200000000000000000000000004200000000000000000000000000000000000006000000000000000000000000b200000000000000000000fbc76c40195c0cd713000000000000000000000000000000000000000000000000000000000080000000000000000000000000000000000000000000000000000000000000000000c80000000000000000000000002dcfca9529a498b3bc2a13784eb4989365e768cc000000000000000000000000000000000000000000000000000000000000000000000000000000000000000000000000000000000014b054a086ba5103bf304f0000000000000000000000000000000000000000000000000000000000000000000000000000000000000000000000000000000000000000000000000000012000000000000000000000000000000000000000000000000000000000000000000000000000000000000000000000000000000000000000000000000000000040000000000000000000000000b200000000000000000000fbc76c40195c0cd71300000000000000000000000000000000000000000014b054a086ba5103bf304f000000000000000000000000000000000000000000000000000000000000004000000000000000000000000042000000000000000000000000000000000000060000000000000000000000000000000000000000000000000000000000000000",
        "nonce": "0x14",
        "chainId": "0x14a34"
      },
      "additionalContracts": [],
      "isFixedGasLimit": false
    }
  ],
  "receipts": [
    {
      "status": "0x1",
      "cumulativeGasUsed": "0x64b1cf",
      "logs": [
        {
          "address": "0x4200000000000000000000000000000000000006",
          "topics": [
            "0xe1fffcc4923d04b559f4d29a8bfc6cda04eb5b0d3c460751c2402c5c5cc9109c",
            "0x0000000000000000000000005ecc44faeb5e64d49d798162a8bb6c70d9424f41"
          ],
          "data": "0x0000000000000000000000000000000000000000000000000011c37937e08000",
          "blockHash": "0x0000000000000000000000000000000000000000000000000000000000000000",
          "blockNumber": "0x294e4eb",
          "blockTimestamp": "0x6a3d28b6",
          "transactionHash": "0xba8ef1d39f667f2607c58fabba27994b9f6b996f4ab72e0153174521279d474c",
          "transactionIndex": "0x16",
          "logIndex": "0x83",
          "removed": false
        }
      ],
      "logsBloom": "0x00000002000000000000000000000000000000000000000000040000000000000000000000400000000000100000000000000000000000000000000000000000000000000000000000000000000000000000000000000000000000008000000000000000000000000000000000000000040000000000000000000000000000000000000000000000000000000000000000000001002000000000000000000000000000000000000000000000000000000000000000000000000000000000000000000000000000000000000000000000000000000000000000000000000000000000000000000000000000000000000000000000000000400000000000000000",
      "type": "0x2",
      "transactionHash": "0xba8ef1d39f667f2607c58fabba27994b9f6b996f4ab72e0153174521279d474c",
      "transactionIndex": "0x16",
      "blockHash": "0x0000000000000000000000000000000000000000000000000000000000000000",
      "blockNumber": "0x294e4eb",
      "gasUsed": "0xaf42",
      "effectiveGasPrice": "0x5b8d80",
      "blobGasUsed": "0xae38",
      "from": "0x5ecc44faeb5e64d49d798162a8bb6c70d9424f41",
      "to": "0x4200000000000000000000000000000000000006",
      "contractAddress": null,
      "daFootprintGasScalar": "0x1be",
      "l1BaseFeeScalar": "0x44d",
      "l1BlobBaseFee": "0x38f6ef0",
      "l1BlobBaseFeeScalar": "0xa118b",
      "l1Fee": "0x160281698",
      "l1GasPrice": "0x428c4163",
      "l1GasUsed": "0x640"
    },
    {
      "status": "0x1",
      "cumulativeGasUsed": "0x24a643",
      "logs": [
        {
          "address": "0x4200000000000000000000000000000000000006",
          "topics": [
            "0x8c5be1e5ebec7d5bd14f71427d1e84f3dd0314c0f7b2291e5b200ac8c7c3b925",
            "0x0000000000000000000000005ecc44faeb5e64d49d798162a8bb6c70d9424f41",
            "0x000000000000000000000000000000000022d473030f116ddee9f6b43ac78ba3"
          ],
          "data": "0x0000000000000000000000000000000000000000000000000011c37937e08000",
          "blockHash": "0x0000000000000000000000000000000000000000000000000000000000000000",
          "blockNumber": "0x294e4ec",
          "blockTimestamp": "0x6a3d28b8",
          "transactionHash": "0xeb613e30e6efce92c44efc86075dabf7d269d1e0fcde4c196c2effb5a38ab343",
          "transactionIndex": "0xd",
          "logIndex": "0x5a",
          "removed": false
        }
      ],
      "logsBloom": "0x00000002000000000000000000000000000000000000000000040000000000000000000000400000000000100000000000000000800000000000000000200000000000000000000000004000000000000000000000000800000000000000000000000000000000000000000000000000040000000000000000000000000000000000000000000000000000000000000000000000002000000000000000000000020000000000000000000000000000000000000000000000000000000000000000000000000000000000000000000000000000000000000000000000000000000010000000000000000000000000000000000000000000000000000000000000",
      "type": "0x2",
      "transactionHash": "0xeb613e30e6efce92c44efc86075dabf7d269d1e0fcde4c196c2effb5a38ab343",
      "transactionIndex": "0xd",
      "blockHash": "0x0000000000000000000000000000000000000000000000000000000000000000",
      "blockNumber": "0x294e4ec",
      "gasUsed": "0xb393",
      "effectiveGasPrice": "0x5b8d80",
      "blobGasUsed": "0xae38",
      "from": "0x5ecc44faeb5e64d49d798162a8bb6c70d9424f41",
      "to": "0x4200000000000000000000000000000000000006",
      "contractAddress": null,
      "daFootprintGasScalar": "0x1be",
      "l1BaseFeeScalar": "0x44d",
      "l1BlobBaseFee": "0x38f6ef0",
      "l1BlobBaseFeeScalar": "0xa118b",
      "l1Fee": "0x160281698",
      "l1GasPrice": "0x428c4163",
      "l1GasUsed": "0x640"
    },
    {
      "status": "0x1",
      "cumulativeGasUsed": "0x455e74",
      "logs": [
        {
          "address": "0x000000000022d473030f116ddee9f6b43ac78ba3",
          "topics": [
            "0xda9fa7c1b00402c17d0161b249b1ab8bbec047c5a52207b9c112deffd817036b",
            "0x0000000000000000000000005ecc44faeb5e64d49d798162a8bb6c70d9424f41",
            "0x0000000000000000000000004200000000000000000000000000000000000006",
            "0x000000000000000000000000492e6456d9528771018deb9e87ef7750ef184104"
          ],
          "data": "0x0000000000000000000000000000000000000000000000000011c37937e08000000000000000000000000000000000000000000000000000000000006a3d36b4",
          "blockHash": "0x0000000000000000000000000000000000000000000000000000000000000000",
          "blockNumber": "0x294e4ed",
          "blockTimestamp": "0x6a3d28ba",
          "transactionHash": "0x281f8ebe01991b7da72685d6f101b7663a9bb4b81147d8f10b2846ff4b519467",
          "transactionIndex": "0x13",
          "logIndex": "0x3f",
          "removed": false
        }
      ],
      "logsBloom": "0x00010002000400000000000000000000000000000000000000000000000000000000000000400000000000000000000000000000000000000020000000080000000000000000000000000000000000000000000000000000000000000000000000000000000000000002000000000000040010000000000000000000000000000020000000000000000000000000000000000000000000000000000000000000000000000000000000000000000000000000000000000000000000080000000000000000000004000000000000000000000000000000000040000000000000000000020000000000000000000000000000000000000000000000000000000400",
      "type": "0x2",
      "transactionHash": "0x281f8ebe01991b7da72685d6f101b7663a9bb4b81147d8f10b2846ff4b519467",
      "transactionIndex": "0x13",
      "blockHash": "0x0000000000000000000000000000000000000000000000000000000000000000",
      "blockNumber": "0x294e4ed",
      "gasUsed": "0xb932",
      "effectiveGasPrice": "0x5b8d80",
      "blobGasUsed": "0xba6a",
      "from": "0x5ecc44faeb5e64d49d798162a8bb6c70d9424f41",
      "to": "0x000000000022d473030f116ddee9f6b43ac78ba3",
      "contractAddress": null,
      "daFootprintGasScalar": "0x1be",
      "l1BaseFeeScalar": "0x44d",
      "l1BlobBaseFee": "0x38f6ef0",
      "l1BlobBaseFeeScalar": "0xa118b",
      "l1Fee": "0x4d9970304",
      "l1GasPrice": "0x43356e2a",
      "l1GasUsed": "0x6b2"
    },
    {
      "status": "0x1",
      "cumulativeGasUsed": "0x36ae99",
      "logs": [
        {
          "address": "0x05e73354cfdd6745c338b50bcfdfa3aa6fa03408",
          "topics": [
            "0xf208f4912782fd25c7f114ca3723a2d5dd6f3bcc3ac8db5af63baa85f711d5ec",
            "0x63ad078b7bb67cd2f05ef0793fee54f15bb08e59a27ce7161dbf7164feac63ed",
            "0x0000000000000000000000004b2c77d209d3405f41a037ec6c77f7f5b8e2ca80"
          ],
          "data": "0xfffffffffffffffffffffffffffffffffffffffffffffffffffffffffff2766000000000000000000000000000000000000000000000000000000000000384000000000000000000000000000000000000000000000000000000000000000000000000000000000000000000000000000000000000000000000000000000639e",
          "blockHash": "0x0000000000000000000000000000000000000000000000000000000000000000",
          "blockNumber": "0x294e4ee",
          "blockTimestamp": "0x6a3d28bc",
          "transactionHash": "0xdde9bc02c2a09d4f43eeedd076d89608c2866a92a559938cf7f9e1ebffa66eb0",
          "transactionIndex": "0x10",
          "logIndex": "0x2c",
          "removed": false
        },
        {
          "address": "0x90e580477a14be33344bab802b5f73d3ec501cbf",
          "topics": [
            "0x21d15f71483b597e8f0009e83b90b2117f6f98c185d7173857dddcae5eb8546a",
            "0x000000000000000000000000b200000000000000000000fbc76c40195c0cd713"
          ],
          "data": "0x00000000000000000000000000000000000000000000000000000000000000000000000000000000000000000000000000000000000000000000000000000000000000000000000000000000000000000000000000000000000000000000008000000000000000000000000000000000000000000000000000000000000000c00000000000000000000000000000000000000000000000000000000000000001000000000000000000000000000000000000000000000000000000000000000000000000000000000000000000000000000000000000000000000000000000010000000000000000000000000000000000000000000000000000000000000000",
          "blockHash": "0x0000000000000000000000000000000000000000000000000000000000000000",
          "blockNumber": "0x294e4ee",
          "blockTimestamp": "0x6a3d28bc",
          "transactionHash": "0xdde9bc02c2a09d4f43eeedd076d89608c2866a92a559938cf7f9e1ebffa66eb0",
          "transactionIndex": "0x10",
          "logIndex": "0x2d",
          "removed": false
        },
        {
          "address": "0x2dcfca9529a498b3bc2a13784eb4989365e768cc",
          "topics": [
            "0x5fd57032db0db564bdfe22ff91033c11d319a1e6b3677e723545a7ba3e304b93"
          ],
          "data": "0x63ad078b7bb67cd2f05ef0793fee54f15bb08e59a27ce7161dbf7164feac63ed",
          "blockHash": "0x0000000000000000000000000000000000000000000000000000000000000000",
          "blockNumber": "0x294e4ee",
          "blockTimestamp": "0x6a3d28bc",
          "transactionHash": "0xdde9bc02c2a09d4f43eeedd076d89608c2866a92a559938cf7f9e1ebffa66eb0",
          "transactionIndex": "0x10",
          "logIndex": "0x2e",
          "removed": false
        },
        {
          "address": "0x05e73354cfdd6745c338b50bcfdfa3aa6fa03408",
          "topics": [
            "0x1b3d7edb2e9c0b0e7c525b20aaaef0f5940d2ed71663c7d39266ecafac728859",
            "0x0000000000000000000000000000000000000000000000000000000000000000",
            "0x0000000000000000000000002dcfca9529a498b3bc2a13784eb4989365e768cc",
            "0x0000000000000000000000004200000000000000000000000000000000000006"
          ],
          "data": "0x0000000000000000000000002dcfca9529a498b3bc2a13784eb4989365e768cc00000000000000000000000000000000000000000000000000000913a8bbfa1f",
          "blockHash": "0x0000000000000000000000000000000000000000000000000000000000000000",
          "blockNumber": "0x294e4ee",
          "blockTimestamp": "0x6a3d28bc",
          "transactionHash": "0xdde9bc02c2a09d4f43eeedd076d89608c2866a92a559938cf7f9e1ebffa66eb0",
          "transactionIndex": "0x10",
          "logIndex": "0x2f",
          "removed": false
        },
        {
          "address": "0x05e73354cfdd6745c338b50bcfdfa3aa6fa03408",
          "topics": [
            "0x40e9cecb9f5f1f1c5b9c97dec2917b7ee92e57ba5563708daca94dd84ad7112f",
            "0x63ad078b7bb67cd2f05ef0793fee54f15bb08e59a27ce7161dbf7164feac63ed",
            "0x000000000000000000000000492e6456d9528771018deb9e87ef7750ef184104"
          ],
          "data": "0xffffffffffffffffffffffffffffffffffffffffffffffffffee459a70db7a1f0000000000000000000000000000000000000000002960a9410d74a2077e609f00000000000000000000000000000000000188f99ffbcfa611e00ebbcc3f5b0600000000000000000000000000000000000000000000d262f663fdaa4522f9db00000000000000000000000000000000000000000000000000000000000383f50000000000000000000000000000000000000000000000000000000000002710",
          "blockHash": "0x0000000000000000000000000000000000000000000000000000000000000000",
          "blockNumber": "0x294e4ee",
          "blockTimestamp": "0x6a3d28bc",
          "transactionHash": "0xdde9bc02c2a09d4f43eeedd076d89608c2866a92a559938cf7f9e1ebffa66eb0",
          "transactionIndex": "0x10",
          "logIndex": "0x30",
          "removed": false
        },
        {
          "address": "0x4200000000000000000000000000000000000006",
          "topics": [
            "0xddf252ad1be2c89b69c2b068fc378daa952ba7f163c4a11628f55a4df523b3ef",
            "0x0000000000000000000000005ecc44faeb5e64d49d798162a8bb6c70d9424f41",
            "0x00000000000000000000000005e73354cfdd6745c338b50bcfdfa3aa6fa03408"
          ],
          "data": "0x0000000000000000000000000000000000000000000000000011c37937e08000",
          "blockHash": "0x0000000000000000000000000000000000000000000000000000000000000000",
          "blockNumber": "0x294e4ee",
          "blockTimestamp": "0x6a3d28bc",
          "transactionHash": "0xdde9bc02c2a09d4f43eeedd076d89608c2866a92a559938cf7f9e1ebffa66eb0",
          "transactionIndex": "0x10",
          "logIndex": "0x31",
          "removed": false
        },
        {
          "address": "0xb200000000000000000000fbc76c40195c0cd713",
          "topics": [
            "0xddf252ad1be2c89b69c2b068fc378daa952ba7f163c4a11628f55a4df523b3ef",
            "0x00000000000000000000000005e73354cfdd6745c338b50bcfdfa3aa6fa03408",
            "0x0000000000000000000000005ecc44faeb5e64d49d798162a8bb6c70d9424f41"
          ],
          "data": "0x0000000000000000000000000000000000000000002960a9410d74a2077e609f",
          "blockHash": "0x0000000000000000000000000000000000000000000000000000000000000000",
          "blockNumber": "0x294e4ee",
          "blockTimestamp": "0x6a3d28bc",
          "transactionHash": "0xdde9bc02c2a09d4f43eeedd076d89608c2866a92a559938cf7f9e1ebffa66eb0",
          "transactionIndex": "0x10",
          "logIndex": "0x32",
          "removed": false
        }
      ],
      "logsBloom": "0x002000020004000100000000000000000040000008000000000400000000000000004001004000000400001000000000000000000400000000280000100000000000000000100000000000080000040000000000001000200000000000000000000000000200000080020000000008000400100000000000000000100000000000000000050400000000800000040000000010000020000000400000000000000000040040000000000000000000200004000020000000000000a0040000000000000002001004000000000000100001000008004000800000000000000020000000020000000000804100000800000004000000000000000000000004000000",
      "type": "0x2",
      "transactionHash": "0xdde9bc02c2a09d4f43eeedd076d89608c2866a92a559938cf7f9e1ebffa66eb0",
      "transactionIndex": "0x10",
      "blockHash": "0x0000000000000000000000000000000000000000000000000000000000000000",
      "blockNumber": "0x294e4ee",
      "gasUsed": "0x58f40",
      "effectiveGasPrice": "0x5b8d80",
      "blobGasUsed": "0x1a220",
      "from": "0x5ecc44faeb5e64d49d798162a8bb6c70d9424f41",
      "to": "0x492e6456d9528771018deb9e87ef7750ef184104",
      "contractAddress": null,
      "daFootprintGasScalar": "0x1be",
      "l1BaseFeeScalar": "0x44d",
      "l1BlobBaseFee": "0x38f6ef0",
      "l1BlobBaseFeeScalar": "0xa118b",
      "l1Fee": "0x35081329f",
      "l1GasPrice": "0x43356e2a",
      "l1GasUsed": "0xf02"
    },
    {
      "status": "0x1",
      "cumulativeGasUsed": "0x180616",
      "logs": [
        {
          "address": "0xb200000000000000000000fbc76c40195c0cd713",
          "topics": [
            "0x8c5be1e5ebec7d5bd14f71427d1e84f3dd0314c0f7b2291e5b200ac8c7c3b925",
            "0x0000000000000000000000005ecc44faeb5e64d49d798162a8bb6c70d9424f41",
            "0x000000000000000000000000000000000022d473030f116ddee9f6b43ac78ba3"
          ],
          "data": "0x00000000000000000000000000000000000000000014b054a086ba5103bf304f",
          "blockHash": "0x0000000000000000000000000000000000000000000000000000000000000000",
          "blockNumber": "0x294e4ef",
          "blockTimestamp": "0x6a3d28be",
          "transactionHash": "0x792529dfe3b4d75b901b3853238452d21646161d48c326cd8da07c28e1a47e7c",
          "transactionIndex": "0xc",
          "logIndex": "0x33",
          "removed": false
        }
      ],
      "logsBloom": "0x00000002000000000000000000000000004000000000000000000000000000000000000000400000000000000000000000000000800000000000000000200000000000000000000000004000000000000000000000000800000000000000000000000000000000000000000000000000040000000000000000000000000000000000000000000000000000000000000000000000000000000000000000000000020000000000000000000000000000000400000000000000000000000000000000000000000000000000000000000000000000000000000000000000000000000010000000000000800000000000000000000000000000000000000000000000",
      "type": "0x2",
      "transactionHash": "0x792529dfe3b4d75b901b3853238452d21646161d48c326cd8da07c28e1a47e7c",
      "transactionIndex": "0xc",
      "blockHash": "0x0000000000000000000000000000000000000000000000000000000000000000",
      "blockNumber": "0x294e4ef",
      "gasUsed": "0xb226",
      "effectiveGasPrice": "0x5b8d80",
      "blobGasUsed": "0xae38",
      "from": "0x5ecc44faeb5e64d49d798162a8bb6c70d9424f41",
      "to": "0xb200000000000000000000fbc76c40195c0cd713",
      "contractAddress": null,
      "daFootprintGasScalar": "0x1be",
      "l1BaseFeeScalar": "0x44d",
      "l1BlobBaseFee": "0x38f6ef0",
      "l1BlobBaseFeeScalar": "0xa118b",
      "l1Fee": "0x161521b56",
      "l1GasPrice": "0x43356e2a",
      "l1GasUsed": "0x640"
    },
    {
      "status": "0x1",
      "cumulativeGasUsed": "0x2ac133",
      "logs": [
        {
          "address": "0x000000000022d473030f116ddee9f6b43ac78ba3",
          "topics": [
            "0xda9fa7c1b00402c17d0161b249b1ab8bbec047c5a52207b9c112deffd817036b",
            "0x0000000000000000000000005ecc44faeb5e64d49d798162a8bb6c70d9424f41",
            "0x000000000000000000000000b200000000000000000000fbc76c40195c0cd713",
            "0x000000000000000000000000492e6456d9528771018deb9e87ef7750ef184104"
          ],
          "data": "0x00000000000000000000000000000000000000000014b054a086ba5103bf304f000000000000000000000000000000000000000000000000000000006a3d36b4",
          "blockHash": "0x0000000000000000000000000000000000000000000000000000000000000000",
          "blockNumber": "0x294e4f0",
          "blockTimestamp": "0x6a3d28c0",
          "transactionHash": "0xcd81caa6ba340a3da64157d46ce782eef9d4a188311645fa7e40e4e52835b83a",
          "transactionIndex": "0xc",
          "logIndex": "0x8e",
          "removed": false
        }
      ],
      "logsBloom": "0x00010002000400000000000000000000000000000000000000000000000000000000000000400000000000000000000000000000000000000000000000080000000000000000000000000000000000000000000000000000000000000000000000000000000000000002000000000000040000000000000000000000000000000020000000000000000000000000000000000000000000000000000000000000000000000000000000000000000000000000002000000000000080080000000000000000000000000000000000100000000000000000000040000000000000000000020000000000000000000000000000000000000000000000000000000400",
      "type": "0x2",
      "transactionHash": "0xcd81caa6ba340a3da64157d46ce782eef9d4a188311645fa7e40e4e52835b83a",
      "transactionIndex": "0xc",
      "blockHash": "0x0000000000000000000000000000000000000000000000000000000000000000",
      "blockNumber": "0x294e4f0",
      "gasUsed": "0xb9ce",
      "effectiveGasPrice": "0x5b8d80",
      "blobGasUsed": "0xcd94",
      "from": "0x5ecc44faeb5e64d49d798162a8bb6c70d9424f41",
      "to": "0x000000000022d473030f116ddee9f6b43ac78ba3",
      "contractAddress": null,
      "daFootprintGasScalar": "0x1be",
      "l1BaseFeeScalar": "0x44d",
      "l1BlobBaseFee": "0x38f6ef0",
      "l1BlobBaseFeeScalar": "0xa118b",
      "l1Fee": "0x1a3f40081",
      "l1GasPrice": "0x43356e2a",
      "l1GasUsed": "0x76d"
    },
    {
      "status": "0x1",
      "cumulativeGasUsed": "0x22c73c",
      "logs": [
        {
          "address": "0x05e73354cfdd6745c338b50bcfdfa3aa6fa03408",
          "topics": [
            "0x1b3d7edb2e9c0b0e7c525b20aaaef0f5940d2ed71663c7d39266ecafac728859",
            "0x0000000000000000000000002dcfca9529a498b3bc2a13784eb4989365e768cc",
            "0x0000000000000000000000000000000000000000000000000000000000000000",
            "0x0000000000000000000000004200000000000000000000000000000000000006"
          ],
          "data": "0x0000000000000000000000002dcfca9529a498b3bc2a13784eb4989365e768cc00000000000000000000000000000000000000000000000000000913a8bbfa1f",
          "blockHash": "0x0000000000000000000000000000000000000000000000000000000000000000",
          "blockNumber": "0x294e4f1",
          "blockTimestamp": "0x6a3d28c2",
          "transactionHash": "0x504604e5c0d58e1a3e67c6b3185c79a5c0ed16fb01167903be63903f9bfc53e7",
          "transactionIndex": "0xe",
          "logIndex": "0x21",
          "removed": false
        },
        {
          "address": "0x4200000000000000000000000000000000000006",
          "topics": [
            "0xddf252ad1be2c89b69c2b068fc378daa952ba7f163c4a11628f55a4df523b3ef",
            "0x00000000000000000000000005e73354cfdd6745c338b50bcfdfa3aa6fa03408",
            "0x000000000000000000000000db9457dad0d0691a56777a036e2d2b3d830d3da3"
          ],
          "data": "0x00000000000000000000000000000000000000000000000000000913a8bbfa1f",
          "blockHash": "0x0000000000000000000000000000000000000000000000000000000000000000",
          "blockNumber": "0x294e4f1",
          "blockTimestamp": "0x6a3d28c2",
          "transactionHash": "0x504604e5c0d58e1a3e67c6b3185c79a5c0ed16fb01167903be63903f9bfc53e7",
          "transactionIndex": "0xe",
          "logIndex": "0x22",
          "removed": false
        },
        {
          "address": "0x2dcfca9529a498b3bc2a13784eb4989365e768cc",
          "topics": [
            "0x175b790d44599ca70432cc8d1406504cb3a28fc13ff995c06dde6663412b211a",
            "0x0000000000000000000000004200000000000000000000000000000000000006"
          ],
          "data": "0x00000000000000000000000000000000000000000000000000000913a8bbfa1f",
          "blockHash": "0x0000000000000000000000000000000000000000000000000000000000000000",
          "blockNumber": "0x294e4f1",
          "blockTimestamp": "0x6a3d28c2",
          "transactionHash": "0x504604e5c0d58e1a3e67c6b3185c79a5c0ed16fb01167903be63903f9bfc53e7",
          "transactionIndex": "0xe",
          "logIndex": "0x23",
          "removed": false
        },
        {
          "address": "0x05e73354cfdd6745c338b50bcfdfa3aa6fa03408",
          "topics": [
            "0xf208f4912782fd25c7f114ca3723a2d5dd6f3bcc3ac8db5af63baa85f711d5ec",
            "0x63ad078b7bb67cd2f05ef0793fee54f15bb08e59a27ce7161dbf7164feac63ed",
            "0x0000000000000000000000004b2c77d209d3405f41a037ec6c77f7f5b8e2ca80"
          ],
          "data": "0xfffffffffffffffffffffffffffffffffffffffffffffffffffffffffff2766000000000000000000000000000000000000000000000000000000000000384000000000000000000000000000000000000000000000000000000000000000000000000000000000000000000000000000000000000000000000000000000639e",
          "blockHash": "0x0000000000000000000000000000000000000000000000000000000000000000",
          "blockNumber": "0x294e4f1",
          "blockTimestamp": "0x6a3d28c2",
          "transactionHash": "0x504604e5c0d58e1a3e67c6b3185c79a5c0ed16fb01167903be63903f9bfc53e7",
          "transactionIndex": "0xe",
          "logIndex": "0x24",
          "removed": false
        },
        {
          "address": "0x4200000000000000000000000000000000000006",
          "topics": [
            "0xddf252ad1be2c89b69c2b068fc378daa952ba7f163c4a11628f55a4df523b3ef",
            "0x00000000000000000000000005e73354cfdd6745c338b50bcfdfa3aa6fa03408",
            "0x00000000000000000000000090e580477a14be33344bab802b5f73d3ec501cbf"
          ],
          "data": "0x00000000000000000000000000000000000000000000000000002d624babe29e",
          "blockHash": "0x0000000000000000000000000000000000000000000000000000000000000000",
          "blockNumber": "0x294e4f1",
          "blockTimestamp": "0x6a3d28c2",
          "transactionHash": "0x504604e5c0d58e1a3e67c6b3185c79a5c0ed16fb01167903be63903f9bfc53e7",
          "transactionIndex": "0xe",
          "logIndex": "0x25",
          "removed": false
        },
        {
          "address": "0x4200000000000000000000000000000000000006",
          "topics": [
            "0x8c5be1e5ebec7d5bd14f71427d1e84f3dd0314c0f7b2291e5b200ac8c7c3b925",
            "0x00000000000000000000000090e580477a14be33344bab802b5f73d3ec501cbf",
            "0x0000000000000000000000009b5209c45393d73ad97a6c6c168d6ebad1dd959f"
          ],
          "data": "0x00000000000000000000000000000000000000000000000000002d624babe29e",
          "blockHash": "0x0000000000000000000000000000000000000000000000000000000000000000",
          "blockNumber": "0x294e4f1",
          "blockTimestamp": "0x6a3d28c2",
          "transactionHash": "0x504604e5c0d58e1a3e67c6b3185c79a5c0ed16fb01167903be63903f9bfc53e7",
          "transactionIndex": "0xe",
          "logIndex": "0x26",
          "removed": false
        },
        {
          "address": "0x4200000000000000000000000000000000000006",
          "topics": [
            "0xddf252ad1be2c89b69c2b068fc378daa952ba7f163c4a11628f55a4df523b3ef",
            "0x00000000000000000000000090e580477a14be33344bab802b5f73d3ec501cbf",
            "0x0000000000000000000000009b5209c45393d73ad97a6c6c168d6ebad1dd959f"
          ],
          "data": "0x00000000000000000000000000000000000000000000000000002d624babe29e",
          "blockHash": "0x0000000000000000000000000000000000000000000000000000000000000000",
          "blockNumber": "0x294e4f1",
          "blockTimestamp": "0x6a3d28c2",
          "transactionHash": "0x504604e5c0d58e1a3e67c6b3185c79a5c0ed16fb01167903be63903f9bfc53e7",
          "transactionIndex": "0xe",
          "logIndex": "0x27",
          "removed": false
        },
        {
          "address": "0x9b5209c45393d73ad97a6c6c168d6ebad1dd959f",
          "topics": [
            "0xadf5da7301d0edbace5767201c524369b56f4040e2eafc873897493fc466e35d",
            "0x00000000000000000000000090e580477a14be33344bab802b5f73d3ec501cbf",
            "0x0000000000000000000000005ecc44faeb5e64d49d798162a8bb6c70d9424f41",
            "0x0000000000000000000000004200000000000000000000000000000000000006"
          ],
          "data": "0x00000000000000000000000000000000000000000000000000002d624babe29e00000000000000000000000000000000000000000000000000002d624babe29e",
          "blockHash": "0x0000000000000000000000000000000000000000000000000000000000000000",
          "blockNumber": "0x294e4f1",
          "blockTimestamp": "0x6a3d28c2",
          "transactionHash": "0x504604e5c0d58e1a3e67c6b3185c79a5c0ed16fb01167903be63903f9bfc53e7",
          "transactionIndex": "0xe",
          "logIndex": "0x28",
          "removed": false
        },
        {
          "address": "0x90e580477a14be33344bab802b5f73d3ec501cbf",
          "topics": [
            "0x21d15f71483b597e8f0009e83b90b2117f6f98c185d7173857dddcae5eb8546a",
            "0x000000000000000000000000b200000000000000000000fbc76c40195c0cd713"
          ],
          "data": "0x00000000000000000000000000000000000000000000000000002d624babe29e0000000000000000000000000000000000000000000000000000000000000000000000000000000000000000000000000000000000000000000000000000008000000000000000000000000000000000000000000000000000000000000000c0000000000000000000000000000000000000000000000000000000000000000100000000000000000000000000000000000000000000000000002d624babe29e00000000000000000000000000000000000000000000000000000000000000010000000000000000000000000000000000000000000000000000000000000000",
          "blockHash": "0x0000000000000000000000000000000000000000000000000000000000000000",
          "blockNumber": "0x294e4f1",
          "blockTimestamp": "0x6a3d28c2",
          "transactionHash": "0x504604e5c0d58e1a3e67c6b3185c79a5c0ed16fb01167903be63903f9bfc53e7",
          "transactionIndex": "0xe",
          "logIndex": "0x29",
          "removed": false
        },
        {
          "address": "0x05e73354cfdd6745c338b50bcfdfa3aa6fa03408",
          "topics": [
            "0x40e9cecb9f5f1f1c5b9c97dec2917b7ee92e57ba5563708daca94dd84ad7112f",
            "0x63ad078b7bb67cd2f05ef0793fee54f15bb08e59a27ce7161dbf7164feac63ed",
            "0x000000000000000000000000492e6456d9528771018deb9e87ef7750ef184104"
          ],
          "data": "0x0000000000000000000000000000000000000000000000000008b09a7035b94effffffffffffffffffffffffffffffffffffffffffeb4fab5f7945aefc40cfb100000000000000000000000000000000000189128c273d624ebe88930bd8bbeb00000000000000000000000000000000000000000000d262f663fdaa4522f9db00000000000000000000000000000000000000000000000000000000000383fa0000000000000000000000000000000000000000000000000000000000002710",
          "blockHash": "0x0000000000000000000000000000000000000000000000000000000000000000",
          "blockNumber": "0x294e4f1",
          "blockTimestamp": "0x6a3d28c2",
          "transactionHash": "0x504604e5c0d58e1a3e67c6b3185c79a5c0ed16fb01167903be63903f9bfc53e7",
          "transactionIndex": "0xe",
          "logIndex": "0x2a",
          "removed": false
        },
        {
          "address": "0x05e73354cfdd6745c338b50bcfdfa3aa6fa03408",
          "topics": [
            "0x1b3d7edb2e9c0b0e7c525b20aaaef0f5940d2ed71663c7d39266ecafac728859",
            "0x0000000000000000000000000000000000000000000000000000000000000000",
            "0x0000000000000000000000002dcfca9529a498b3bc2a13784eb4989365e768cc",
            "0x0000000000000000000000004200000000000000000000000000000000000006"
          ],
          "data": "0x0000000000000000000000002dcfca9529a498b3bc2a13784eb4989365e768cc00000000000000000000000000000000000000000000000000000472ff334eb4",
          "blockHash": "0x0000000000000000000000000000000000000000000000000000000000000000",
          "blockNumber": "0x294e4f1",
          "blockTimestamp": "0x6a3d28c2",
          "transactionHash": "0x504604e5c0d58e1a3e67c6b3185c79a5c0ed16fb01167903be63903f9bfc53e7",
          "transactionIndex": "0xe",
          "logIndex": "0x2b",
          "removed": false
        },
        {
          "address": "0xb200000000000000000000fbc76c40195c0cd713",
          "topics": [
            "0xddf252ad1be2c89b69c2b068fc378daa952ba7f163c4a11628f55a4df523b3ef",
            "0x0000000000000000000000005ecc44faeb5e64d49d798162a8bb6c70d9424f41",
            "0x00000000000000000000000005e73354cfdd6745c338b50bcfdfa3aa6fa03408"
          ],
          "data": "0x00000000000000000000000000000000000000000014b054a086ba5103bf304f",
          "blockHash": "0x0000000000000000000000000000000000000000000000000000000000000000",
          "blockNumber": "0x294e4f1",
          "blockTimestamp": "0x6a3d28c2",
          "transactionHash": "0x504604e5c0d58e1a3e67c6b3185c79a5c0ed16fb01167903be63903f9bfc53e7",
          "transactionIndex": "0xe",
          "logIndex": "0x2c",
          "removed": false
        },
        {
          "address": "0x4200000000000000000000000000000000000006",
          "topics": [
            "0xddf252ad1be2c89b69c2b068fc378daa952ba7f163c4a11628f55a4df523b3ef",
            "0x00000000000000000000000005e73354cfdd6745c338b50bcfdfa3aa6fa03408",
            "0x0000000000000000000000005ecc44faeb5e64d49d798162a8bb6c70d9424f41"
          ],
          "data": "0x0000000000000000000000000000000000000000000000000008ac2771026a9a",
          "blockHash": "0x0000000000000000000000000000000000000000000000000000000000000000",
          "blockNumber": "0x294e4f1",
          "blockTimestamp": "0x6a3d28c2",
          "transactionHash": "0x504604e5c0d58e1a3e67c6b3185c79a5c0ed16fb01167903be63903f9bfc53e7",
          "transactionIndex": "0xe",
          "logIndex": "0x2d",
          "removed": false
        }
      ],
      "logsBloom": "0x0020000200040001000000000020000000400000082000000004000000000000000000010040000004000010800000000000000014000000002a0800102000000000000000100000000000080000040000000000001000200000000000000100000000000200000000020000000008000400100000000000001000100000000000000000050400001000800000040000000090000020001000400000000000000200040040000000000000000000200004000020000000000000a004000000000800000200100400000000040010000000040a004000800000000000000020000010020000000000804100100800080004000000000000000100000004000000",
      "type": "0x2",
      "transactionHash": "0x504604e5c0d58e1a3e67c6b3185c79a5c0ed16fb01167903be63903f9bfc53e7",
      "transactionIndex": "0xe",
      "blockHash": "0x0000000000000000000000000000000000000000000000000000000000000000",
      "blockNumber": "0x294e4f1",
      "gasUsed": "0x65543",
      "effectiveGasPrice": "0x5b8d80",
      "blobGasUsed": "0x1a220",
      "from": "0x5ecc44faeb5e64d49d798162a8bb6c70d9424f41",
      "to": "0x492e6456d9528771018deb9e87ef7750ef184104",
      "contractAddress": null,
      "daFootprintGasScalar": "0x1be",
      "l1BaseFeeScalar": "0x44d",
      "l1BlobBaseFee": "0x38f6ef0",
      "l1BlobBaseFeeScalar": "0xa118b",
      "l1Fee": "0x2c5984937",
      "l1GasPrice": "0x43356e2a",
      "l1GasUsed": "0xf0f"
    }
  ],
  "libraries": [],
  "pending": [],
  "returns": {},
  "timestamp": 1782393024731,
  "chain": 84532,
  "commit": "1b68886"
}