{
  "transactions": [
    {
      "hash": "0x597a3128bbe36dcadae6f57e5f370714b2c1f113400970c2f6c9a54c6d323a79",
      "transactionType": "CALL",
      "contractName": null,
      "contractAddress": "0x4200000000000000000000000000000000000006",
      "function": "deposit()",
      "arguments": [],
      "transaction": {
        "from": "0x5ecc44faeb5e64d49d798162a8bb6c70d9424f41",
        "to": "0x4200000000000000000000000000000000000006",
        "gas": "0x95cf",
        "value": "0x11c37937e08000",
        "input": "0xd0e30db0",
        "nonce": "0x15",
        "chainId": "0x14a34"
      },
      "additionalContracts": [],
      "isFixedGasLimit": false
    },
    {
      "hash": "0xcc8930104d05a0694a2f32e74a011cf8d7274a8629551d7b47e612bccc64ef88",
      "transactionType": "CALL",
      "contractName": null,
      "contractAddress": "0x4200000000000000000000000000000000000006",
      "function": "approve(address,uint256)",
      "arguments": [
        "0x000000000022D473030F116dDEE9F6B43aC78BA3",
        "5000000000000000"
      ],
      "transaction": {
        "from": "0x5ecc44faeb5e64d49d798162a8bb6c70d9424f41",
        "to": "0x4200000000000000000000000000000000000006",
        "gas": "0x106a0",
        "value": "0x0",
        "input": "0x095ea7b3000000000000000000000000000000000022d473030f116ddee9f6b43ac78ba30000000000000000000000000000000000000000000000000011c37937e08000",
        "nonce": "0x16",
        "chainId": "0x14a34"
      },
      "additionalContracts": [],
      "isFixedGasLimit": false
    },
    {
      "hash": "0x03d461f73abf00b9f9890cf58bf08ab469b7b568a65de6ab15b9da0a02b614ed",
      "transactionType": "CALL",
      "contractName": null,
      "contractAddress": "0x000000000022d473030f116ddee9f6b43ac78ba3",
      "function": "approve(address,address,uint160,uint48)",
      "arguments": [
        "0x4200000000000000000000000000000000000006",
        "0x492E6456D9528771018DeB9E87ef7750EF184104",
        "5000000000000000",
        "1782397284"
      ],
      "transaction": {
        "from": "0x5ecc44faeb5e64d49d798162a8bb6c70d9424f41",
        "to": "0x000000000022d473030f116ddee9f6b43ac78ba3",
        "gas": "0xa389",
        "value": "0x0",
        "input": "0x87517c450000000000000000000000004200000000000000000000000000000000000006000000000000000000000000492e6456d9528771018deb9e87ef7750ef1841040000000000000000000000000000000000000000000000000011c37937e08000000000000000000000000000000000000000000000000000000000006a3d3964",
        "nonce": "0x17",
        "chainId": "0x14a34"
      },
      "additionalContracts": [],
      "isFixedGasLimit": false
    },
    {
      "hash": "0x6e9c4f97f09029b4ab7efca04b3a7f1d352ff6963c7e53fa7633d168b6b25191",
      "transactionType": "CALL",
      "contractName": null,
      "contractAddress": "0x492e6456d9528771018deb9e87ef7750ef184104",
      "function": "execute(bytes,bytes[],uint256)",
      "arguments": [
        "0x10",
        "[0x000000000000000000000000000000000000000000000000000000000000004000000000000000000000000000000000000000000000000000000000000000800000000000000000000000000000000000000000000000000000000000000003060c0f00000000000000000000000000000000000000000000000000000000000000000000000000000000000000000000000000000000000000000000000003000000000000000000000000000000000000000000000000000000000000006000000000000000000000000000000000000000000000000000000000000001e00000000000000000000000000000000000000000000000000000000000000240000000000000000000000000000000000000000000000000000000000000016000000000000000000000000000000000000000000000000000000000000000200000000000000000000000004200000000000000000000000000000000000006000000000000000000000000b200000000000000000000fbc76c40195c0cd713000000000000000000000000000000000000000000000000000000000080000000000000000000000000000000000000000000000000000000000000000000c80000000000000000000000002dcfca9529a498b3bc2a13784eb4989365e768cc00000000000000000000000000000000000000000000000000000000000000010000000000000000000000000000000000000000000000000011c37937e08000000000000000000000000000000000000000000000000000000000000000000000000000000000000000000000000000000000000000000000000000000001200000000000000000000000000000000000000000000000000000000000000000000000000000000000000000000000000000000000000000000000000000004000000000000000000000000042000000000000000000000000000000000000060000000000000000000000000000000000000000000000000011c37937e080000000000000000000000000000000000000000000000000000000000000000040000000000000000000000000b200000000000000000000fbc76c40195c0cd7130000000000000000000000000000000000000000000000000000000000000000]",
        "1782393744"
      ],
      "transaction": {
        "from": "0x5ecc44faeb5e64d49d798162a8bb6c70d9424f41",
        "to": "0x492e6456d9528771018deb9e87ef7750ef184104",
        "gas": "0x7ad8c",
        "value": "0x0",
        "input": "0x3593564c000000000000000000000000000000000000000000000000000000000000006000000000000000000000000000000000000000000000000000000000000000a0000000000000000000000000000000000000000000000000000000006a3d2b9000000000000000000000000000000000000000000000000000000000000000011000000000000000000000000000000000000000000000000000000000000000000000000000000000000000000000000000000000000000000000000000000100000000000000000000000000000000000000000000000000000000000000200000000000000000000000000000000000000000000000000000000000000340000000000000000000000000000000000000000000000000000000000000004000000000000000000000000000000000000000000000000000000000000000800000000000000000000000000000000000000000000000000000000000000003060c0f00000000000000000000000000000000000000000000000000000000000000000000000000000000000000000000000000000000000000000000000003000000000000000000000000000000000000000000000000000000000000006000000000000000000000000000000000000000000000000000000000000001e00000000000000000000000000000000000000000000000000000000000000240000000000000000000000000000000000000000000000000000000000000016000000000000000000000000000000000000000000000000000000000000000200000000000000000000000004200000000000000000000000000000000000006000000000000000000000000b200000000000000000000fbc76c40195c0cd713000000000000000000000000000000000000000000000000000000000080000000000000000000000000000000000000000000000000000000000000000000c80000000000000000000000002dcfca9529a498b3bc2a13784eb4989365e768cc00000000000000000000000000000000000000000000000000000000000000010000000000000000000000000000000000000000000000000011c37937e08000000000000000000000000000000000000000000000000000000000000000000000000000000000000000000000000000000000000000000000000000000001200000000000000000000000000000000000000000000000000000000000000000000000000000000000000000000000000000000000000000000000000000004000000000000000000000000042000000000000000000000000000000000000060000000000000000000000000000000000000000000000000011c37937e080000000000000000000000000000000000000000000000000000000000000000040000000000000000000000000b200000000000000000000fbc76c40195c0cd7130000000000000000000000000000000000000000000000000000000000000000",
        "nonce": "0x18",
        "chainId": "0x14a34"
      },
      "additionalContracts": [],
      "isFixedGasLimit": false
    },
    {
      "hash": "0x7c2e024aad0c7032fcd84647da54b582386c5630d33ab3d2933884dd9eeba03a",
      "transactionType": "CALL",
      "contractName": null,
      "contractAddress": "0xb200000000000000000000fbc76c40195c0cd713",
      "function": "approve(address,uint256)",
      "arguments": [
        "0x000000000022D473030F116dDEE9F6B43aC78BA3",
        "24998582413205508749021442"
      ],
      "transaction": {
        "from": "0x5ecc44faeb5e64d49d798162a8bb6c70d9424f41",
        "to": "0xb200000000000000000000fbc76c40195c0cd713",
        "gas": "0xf610",
        "value": "0x0",
        "input": "0x095ea7b3000000000000000000000000000000000022d473030f116ddee9f6b43ac78ba300000000000000000000000000000000000000000014ada7de3a045019505102",
        "nonce": "0x19",
        "chainId": "0x14a34"
      },
      "additionalContracts": [],
      "isFixedGasLimit": false
    },
    {
      "hash": "0x507645944eff70a7c5ffbc9c04df35007c4efda71b819e2d19f85adc32ae422a",
      "transactionType": "CALL",
      "contractName": null,
      "contractAddress": "0x000000000022d473030f116ddee9f6b43ac78ba3",
      "function": "approve(address,address,uint160,uint48)",
      "arguments": [
        "0xB200000000000000000000fBC76c40195c0cd713",
        "0x492E6456D9528771018DeB9E87ef7750EF184104",
        "24998582413205508749021442",
        "1782397284"
      ],
      "transaction": {
        "from": "0x5ecc44faeb5e64d49d798162a8bb6c70d9424f41",
        "to": "0x000000000022d473030f116ddee9f6b43ac78ba3",
        "gas": "0xae0c",
        "value": "0x0",
        "input": "0x87517c45000000000000000000000000b200000000000000000000fbc76c40195c0cd713000000000000000000000000492e6456d9528771018deb9e87ef7750ef18410400000000000000000000000000000000000000000014ada7de3a045019505102000000000000000000000000000000000000000000000000000000006a3d3964",
        "nonce": "0x1a",
        "chainId": "0x14a34"
      },
      "additionalContracts": [],
      "isFixedGasLimit": false
    },
    {
      "hash": "0xcb5fbe16fbfb69111c4b1f1434500a7aa6605df3a2033053c81629cb5645bc34",
      "transactionType": "CALL",
      "contractName": null,
      "contractAddress": "0x492e6456d9528771018deb9e87ef7750ef184104",
      "function": "execute(bytes,bytes[],uint256)",
      "arguments": [
        "0x10",
        "[0x000000000000000000000000000000000000000000000000000000000000004000000000000000000000000000000000000000000000000000000000000000800000000000000000000000000000000000000000000000000000000000000003060c0f00000000000000000000000000000000000000000000000000000000000000000000000000000000000000000000000000000000000000000000000003000000000000000000000000000000000000000000000000000000000000006000000000000000000000000000000000000000000000000000000000000001e00000000000000000000000000000000000000000000000000000000000000240000000000000000000000000000000000000000000000000000000000000016000000000000000000000000000000000000000000000000000000000000000200000000000000000000000004200000000000000000000000000000000000006000000000000000000000000b200000000000000000000fbc76c40195c0cd713000000000000000000000000000000000000000000000000000000000080000000000000000000000000000000000000000000000000000000000000000000c80000000000000000000000002dcfca9529a498b3bc2a13784eb4989365e768cc000000000000000000000000000000000000000000000000000000000000000000000000000000000000000000000000000000000014ada7de3a0450195051020000000000000000000000000000000000000000000000000000000000000000000000000000000000000000000000000000000000000000000000000000012000000000000000000000000000000000000000000000000000000000000000000000000000000000000000000000000000000000000000000000000000000040000000000000000000000000b200000000000000000000fbc76c40195c0cd71300000000000000000000000000000000000000000014ada7de3a045019505102000000000000000000000000000000000000000000000000000000000000004000000000000000000000000042000000000000000000000000000000000000060000000000000000000000000000000000000000000000000000000000000000]",
        "1782393744"
      ],
      "transaction": {
        "from": "0x5ecc44faeb5e64d49d798162a8bb6c70d9424f41",
        "to": "0x492e6456d9528771018deb9e87ef7750ef184104",
        "gas": "0x69b14",
        "value": "0x0",
        "input": "0x3593564c000000000000000000000000000000000000000000000000000000000000006000000000000000000000000000000000000000000000000000000000000000a0000000000000000000000000000000000000000000000000000000006a3d2b9000000000000000000000000000000000000000000000000000000000000000011000000000000000000000000000000000000000000000000000000000000000000000000000000000000000000000000000000000000000000000000000000100000000000000000000000000000000000000000000000000000000000000200000000000000000000000000000000000000000000000000000000000000340000000000000000000000000000000000000000000000000000000000000004000000000000000000000000000000000000000000000000000000000000000800000000000000000000000000000000000000000000000000000000000000003060c0f00000000000000000000000000000000000000000000000000000000000000000000000000000000000000000000000000000000000000000000000003000000000000000000000000000000000000000000000000000000000000006000000000000000000000000000000000000000000000000000000000000001e00000000000000000000000000000000000000000000000000000000000000240000000000000000000000000000000000000000000000000000000000000016000000000000000000000000000000000000000000000000000000000000000200000000000000000000000004200000000000000000000000000000000000006000000000000000000000000b200000000000000000000fbc76c40195c0cd713000000000000000000000000000000000000000000000000000000000080000000000000000000000000000000000000000000000000000000000000000000c80000000000000000000000002dcfca9529a498b3bc2a13784eb4989365e768cc000000000000000000000000000000000000000000000000000000000000000000000000000000000000000000000000000000000014ada7de3a0450195051020000000000000000000000000000000000000000000000000000000000000000000000000000000000000000000000000000000000000000000000000000012000000000000000000000000000000000000000000000000000000000000000000000000000000000000000000000000000000000000000000000000000000040000000000000000000000000b200000000000000000000fbc76c40195c0cd71300000000000000000000000000000000000000000014ada7de3a045019505102000000000000000000000000000000000000000000000000000000000000004000000000000000000000000042000000000000000000000000000000000000060000000000000000000000000000000000000000000000000000000000000000",
        "nonce": "0x1b",
        "chainId": "0x14a34"
      },
      "additionalContracts": [],
      "isFixedGasLimit": false
    }
  ],
  "receipts": [
    {
      "status": "0x1",
      "cumulativeGasUsed": "0x6724c2",
      "logs": [
        {
          "address": "0x4200000000000000000000000000000000000006",
          "topics": [
            "0xe1fffcc4923d04b559f4d29a8bfc6cda04eb5b0d3c460751c2402c5c5cc9109c",
            "0x0000000000000000000000005ecc44faeb5e64d49d798162a8bb6c70d9424f41"
          ],
          "data": "0x0000000000000000000000000000000000000000000000000011c37937e08000",
          "blockHash": "0x0000000000000000000000000000000000000000000000000000000000000000",
          "blockNumber": "0x294e644",
          "blockTimestamp": "0x6a3d2b68",
          "transactionHash": "0x597a3128bbe36dcadae6f57e5f370714b2c1f113400970c2f6c9a54c6d323a79",
          "transactionIndex": "0xf",
          "logIndex": "0xaa",
          "removed": false
        }
      ],
      "logsBloom": "0x00000002000000000000000000000000000000000000000000040000000000000000000000400000000000100000000000000000000000000000000000000000000000000000000000000000000000000000000000000000000000008000000000000000000000000000000000000000040000000000000000000000000000000000000000000000000000000000000000000001002000000000000000000000000000000000000000000000000000000000000000000000000000000000000000000000000000000000000000000000000000000000000000000000000000000000000000000000000000000000000000000000000000400000000000000000",
      "type": "0x2",
      "transactionHash": "0x597a3128bbe36dcadae6f57e5f370714b2c1f113400970c2f6c9a54c6d323a79",
      "transactionIndex": "0xf",
      "blockHash": "0x0000000000000000000000000000000000000000000000000000000000000000",
      "blockNumber": "0x294e644",
      "gasUsed": "0x6c76",
      "effectiveGasPrice": "0x5b8d80",
      "blobGasUsed": "0xae38",
      "from": "0x5ecc44faeb5e64d49d798162a8bb6c70d9424f41",
      "to": "0x4200000000000000000000000000000000000006",
      "contractAddress": null,
      "daFootprintGasScalar": "0x1be",
      "l1BaseFeeScalar": "0x44d",
      "l1BlobBaseFee": "0x3c06a30",
      "l1BlobBaseFeeScalar": "0xa118b",
      "l1Fee": "0x16e320183",
      "l1GasPrice": "0x4359ad85",
      "l1GasUsed": "0x640"
    },
    {
      "status": "0x1",
      "cumulativeGasUsed": "0x2e028f",
      "logs": [
        {
          "address": "0x4200000000000000000000000000000000000006",
          "topics": [
            "0x8c5be1e5ebec7d5bd14f71427d1e84f3dd0314c0f7b2291e5b200ac8c7c3b925",
            "0x0000000000000000000000005ecc44faeb5e64d49d798162a8bb6c70d9424f41",
            "0x000000000000000000000000000000000022d473030f116ddee9f6b43ac78ba3"
          ],
          "data": "0x0000000000000000000000000000000000000000000000000011c37937e08000",
          "blockHash": "0x0000000000000000000000000000000000000000000000000000000000000000",
          "blockNumber": "0x294e645",
          "blockTimestamp": "0x6a3d2b6a",
          "transactionHash": "0xcc8930104d05a0694a2f32e74a011cf8d7274a8629551d7b47e612bccc64ef88",
          "transactionIndex": "0x11",
          "logIndex": "0x47",
          "removed": false
        }
      ],
      "logsBloom": "0x00000002000000000000000000000000000000000000000000040000000000000000000000400000000000100000000000000000800000000000000000200000000000000000000000004000000000000000000000000800000000000000000000000000000000000000000000000000040000000000000000000000000000000000000000000000000000000000000000000000002000000000000000000000020000000000000000000000000000000000000000000000000000000000000000000000000000000000000000000000000000000000000000000000000000000010000000000000000000000000000000000000000000000000000000000000",
      "type": "0x2",
      "transactionHash": "0xcc8930104d05a0694a2f32e74a011cf8d7274a8629551d7b47e612bccc64ef88",
      "transactionIndex": "0x11",
      "blockHash": "0x0000000000000000000000000000000000000000000000000000000000000000",
      "blockNumber": "0x294e645",
      "gasUsed": "0xb393",
      "effectiveGasPrice": "0x5b8d80",
      "blobGasUsed": "0xae38",
      "from": "0x5ecc44faeb5e64d49d798162a8bb6c70d9424f41",
      "to": "0x4200000000000000000000000000000000000006",
      "contractAddress": null,
      "daFootprintGasScalar": "0x1be",
      "l1BaseFeeScalar": "0x44d",
      "l1BlobBaseFee": "0x3c06a30",
      "l1BlobBaseFeeScalar": "0xa118b",
      "l1Fee": "0x16e320183",
      "l1GasPrice": "0x4359ad85",
      "l1GasUsed": "0x640"
    },
    {
      "status": "0x1",
      "cumulativeGasUsed": "0x4b0c74",
      "logs": [
        {
          "address": "0x000000000022d473030f116ddee9f6b43ac78ba3",
          "topics": [
            "0xda9fa7c1b00402c17d0161b249b1ab8bbec047c5a52207b9c112deffd817036b",
            "0x0000000000000000000000005ecc44faeb5e64d49d798162a8bb6c70d9424f41",
            "0x0000000000000000000000004200000000000000000000000000000000000006",
            "0x000000000000000000000000492e6456d9528771018deb9e87ef7750ef184104"
          ],
          "data": "0x0000000000000000000000000000000000000000000000000011c37937e08000000000000000000000000000000000000000000000000000000000006a3d3964",
          "blockHash": "0x0000000000000000000000000000000000000000000000000000000000000000",
          "blockNumber": "0x294e646",
          "blockTimestamp": "0x6a3d2b6c",
          "transactionHash": "0x03d461f73abf00b9f9890cf58bf08ab469b7b568a65de6ab15b9da0a02b614ed",
          "transactionIndex": "0xd",
          "logIndex": "0xa7",
          "removed": false
        }
      ],
      "logsBloom": "0x00010002000400000000000000000000000000000000000000000000000000000000000000400000000000000000000000000000000000000020000000080000000000000000000000000000000000000000000000000000000000000000000000000000000000000002000000000000040010000000000000000000000000000020000000000000000000000000000000000000000000000000000000000000000000000000000000000000000000000000000000000000000000080000000000000000000004000000000000000000000000000000000040000000000000000000020000000000000000000000000000000000000000000000000000000400",
      "type": "0x2",
      "transactionHash": "0x03d461f73abf00b9f9890cf58bf08ab469b7b568a65de6ab15b9da0a02b614ed",
      "transactionIndex": "0xd",
      "blockHash": "0x0000000000000000000000000000000000000000000000000000000000000000",
      "blockNumber": "0x294e646",
      "gasUsed": "0x7666",
      "effectiveGasPrice": "0x5b8d80",
      "blobGasUsed": "0xb6ee",
      "from": "0x5ecc44faeb5e64d49d798162a8bb6c70d9424f41",
      "to": "0x000000000022d473030f116ddee9f6b43ac78ba3",
      "contractAddress": null,
      "daFootprintGasScalar": "0x1be",
      "l1BaseFeeScalar": "0x44d",
      "l1BlobBaseFee": "0x3c06a30",
      "l1BlobBaseFeeScalar": "0xa118b",
      "l1Fee": "0x1823e8188",
      "l1GasPrice": "0x4359ad85",
      "l1GasUsed": "0x697"
    },
    {
      "status": "0x1",
      "cumulativeGasUsed": "0x189673",
      "logs": [
        {
          "address": "0x05e73354cfdd6745c338b50bcfdfa3aa6fa03408",
          "topics": [
            "0x1b3d7edb2e9c0b0e7c525b20aaaef0f5940d2ed71663c7d39266ecafac728859",
            "0x0000000000000000000000002dcfca9529a498b3bc2a13784eb4989365e768cc",
            "0x0000000000000000000000000000000000000000000000000000000000000000",
            "0x0000000000000000000000004200000000000000000000000000000000000006"
          ],
          "data": "0x0000000000000000000000002dcfca9529a498b3bc2a13784eb4989365e768cc00000000000000000000000000000000000000000000000000000472ff334eb4",
          "blockHash": "0x0000000000000000000000000000000000000000000000000000000000000000",
          "blockNumber": "0x294e647",
          "blockTimestamp": "0x6a3d2b6e",
          "transactionHash": "0x6e9c4f97f09029b4ab7efca04b3a7f1d352ff6963c7e53fa7633d168b6b25191",
          "transactionIndex": "0x8",
          "logIndex": "0x32",
          "removed": false
        },
        {
          "address": "0x4200000000000000000000000000000000000006",
          "topics": [
            "0xddf252ad1be2c89b69c2b068fc378daa952ba7f163c4a11628f55a4df523b3ef",
            "0x00000000000000000000000005e73354cfdd6745c338b50bcfdfa3aa6fa03408",
            "0x000000000000000000000000db9457dad0d0691a56777a036e2d2b3d830d3da3"
          ],
          "data": "0x00000000000000000000000000000000000000000000000000000472ff334eb4",
          "blockHash": "0x0000000000000000000000000000000000000000000000000000000000000000",
          "blockNumber": "0x294e647",
          "blockTimestamp": "0x6a3d2b6e",
          "transactionHash": "0x6e9c4f97f09029b4ab7efca04b3a7f1d352ff6963c7e53fa7633d168b6b25191",
          "transactionIndex": "0x8",
          "logIndex": "0x33",
          "removed": false
        },
        {
          "address": "0x2dcfca9529a498b3bc2a13784eb4989365e768cc",
          "topics": [
            "0x175b790d44599ca70432cc8d1406504cb3a28fc13ff995c06dde6663412b211a",
            "0x0000000000000000000000004200000000000000000000000000000000000006"
          ],
          "data": "0x00000000000000000000000000000000000000000000000000000472ff334eb4",
          "blockHash": "0x0000000000000000000000000000000000000000000000000000000000000000",
          "blockNumber": "0x294e647",
          "blockTimestamp": "0x6a3d2b6e",
          "transactionHash": "0x6e9c4f97f09029b4ab7efca04b3a7f1d352ff6963c7e53fa7633d168b6b25191",
          "transactionIndex": "0x8",
          "logIndex": "0x34",
          "removed": false
        },
        {
          "address": "0x05e73354cfdd6745c338b50bcfdfa3aa6fa03408",
          "topics": [
            "0xf208f4912782fd25c7f114ca3723a2d5dd6f3bcc3ac8db5af63baa85f711d5ec",
            "0x63ad078b7bb67cd2f05ef0793fee54f15bb08e59a27ce7161dbf7164feac63ed",
            "0x0000000000000000000000004b2c77d209d3405f41a037ec6c77f7f5b8e2ca80"
          ],
          "data": "0xfffffffffffffffffffffffffffffffffffffffffffffffffffffffffff2766000000000000000000000000000000000000000000000000000000000000384000000000000000000000000000000000000000000000000000000000000000000000000000000000000000000000000000000000000000000000000000000639e",
          "blockHash": "0x0000000000000000000000000000000000000000000000000000000000000000",
          "blockNumber": "0x294e647",
          "blockTimestamp": "0x6a3d2b6e",
          "transactionHash": "0x6e9c4f97f09029b4ab7efca04b3a7f1d352ff6963c7e53fa7633d168b6b25191",
          "transactionIndex": "0x8",
          "logIndex": "0x35",
          "removed": false
        },
        {
          "address": "0xb200000000000000000000fbc76c40195c0cd713",
          "topics": [
            "0xddf252ad1be2c89b69c2b068fc378daa952ba7f163c4a11628f55a4df523b3ef",
            "0x00000000000000000000000005e73354cfdd6745c338b50bcfdfa3aa6fa03408",
            "0x00000000000000000000000090e580477a14be33344bab802b5f73d3ec501cbf"
          ],
          "data": "0x0000000000000000000000000000000000000000000034f69b348c1a68ff5a15",
          "blockHash": "0x0000000000000000000000000000000000000000000000000000000000000000",
          "blockNumber": "0x294e647",
          "blockTimestamp": "0x6a3d2b6e",
          "transactionHash": "0x6e9c4f97f09029b4ab7efca04b3a7f1d352ff6963c7e53fa7633d168b6b25191",
          "transactionIndex": "0x8",
          "logIndex": "0x36",
          "removed": false
        },
        {
          "address": "0xb200000000000000000000fbc76c40195c0cd713",
          "topics": [
            "0x8c5be1e5ebec7d5bd14f71427d1e84f3dd0314c0f7b2291e5b200ac8c7c3b925",
            "0x00000000000000000000000090e580477a14be33344bab802b5f73d3ec501cbf",
            "0x0000000000000000000000009b5209c45393d73ad97a6c6c168d6ebad1dd959f"
          ],
          "data": "0x0000000000000000000000000000000000000000000034f69b348c1a68ff5a15",
          "blockHash": "0x0000000000000000000000000000000000000000000000000000000000000000",
          "blockNumber": "0x294e647",
          "blockTimestamp": "0x6a3d2b6e",
          "transactionHash": "0x6e9c4f97f09029b4ab7efca04b3a7f1d352ff6963c7e53fa7633d168b6b25191",
          "transactionIndex": "0x8",
          "logIndex": "0x37",
          "removed": false
        },
        {
          "address": "0xb200000000000000000000fbc76c40195c0cd713",
          "topics": [
            "0xddf252ad1be2c89b69c2b068fc378daa952ba7f163c4a11628f55a4df523b3ef",
            "0x00000000000000000000000090e580477a14be33344bab802b5f73d3ec501cbf",
            "0x0000000000000000000000009b5209c45393d73ad97a6c6c168d6ebad1dd959f"
          ],
          "data": "0x0000000000000000000000000000000000000000000034f69b348c1a68ff5a15",
          "blockHash": "0x0000000000000000000000000000000000000000000000000000000000000000",
          "blockNumber": "0x294e647",
          "blockTimestamp": "0x6a3d2b6e",
          "transactionHash": "0x6e9c4f97f09029b4ab7efca04b3a7f1d352ff6963c7e53fa7633d168b6b25191",
          "transactionIndex": "0x8",
          "logIndex": "0x38",
          "removed": false
        },
        {
          "address": "0x9b5209c45393d73ad97a6c6c168d6ebad1dd959f",
          "topics": [
            "0xadf5da7301d0edbace5767201c524369b56f4040e2eafc873897493fc466e35d",
            "0x00000000000000000000000090e580477a14be33344bab802b5f73d3ec501cbf",
            "0x0000000000000000000000005ecc44faeb5e64d49d798162a8bb6c70d9424f41",
            "0x000000000000000000000000b200000000000000000000fbc76c40195c0cd713"
          ],
          "data": "0x0000000000000000000000000000000000000000000034f69b348c1a68ff5a150000000000000000000000000000000000000000000034f69b348c1a68ff5a15",
          "blockHash": "0x0000000000000000000000000000000000000000000000000000000000000000",
          "blockNumber": "0x294e647",
          "blockTimestamp": "0x6a3d2b6e",
          "transactionHash": "0x6e9c4f97f09029b4ab7efca04b3a7f1d352ff6963c7e53fa7633d168b6b25191",
          "transactionIndex": "0x8",
          "logIndex": "0x39",
          "removed": false
        },
        {
          "address": "0x90e580477a14be33344bab802b5f73d3ec501cbf",
          "topics": [
            "0x21d15f71483b597e8f0009e83b90b2117f6f98c185d7173857dddcae5eb8546a",
            "0x000000000000000000000000b200000000000000000000fbc76c40195c0cd713"
          ],
          "data": "0x00000000000000000000000000000000000000000000000000000000000000000000000000000000000000000000000000000000000034f69b348c1a68ff5a15000000000000000000000000000000000000000000000000000000000000008000000000000000000000000000000000000000000000000000000000000000c00000000000000000000000000000000000000000000000000000000000000001000000000000000000000000000000000000000000000000000000000000000000000000000000000000000000000000000000000000000000000000000000010000000000000000000000000000000000000000000034f69b348c1a68ff5a15",
          "blockHash": "0x0000000000000000000000000000000000000000000000000000000000000000",
          "blockNumber": "0x294e647",
          "blockTimestamp": "0x6a3d2b6e",
          "transactionHash": "0x6e9c4f97f09029b4ab7efca04b3a7f1d352ff6963c7e53fa7633d168b6b25191",
          "transactionIndex": "0x8",
          "logIndex": "0x3a",
          "removed": false
        },
        {
          "address": "0x05e73354cfdd6745c338b50bcfdfa3aa6fa03408",
          "topics": [
            "0x1b3d7edb2e9c0b0e7c525b20aaaef0f5940d2ed71663c7d39266ecafac728859",
            "0x0000000000000000000000000000000000000000000000000000000000000000",
            "0x0000000000000000000000002dcfca9529a498b3bc2a13784eb4989365e768cc",
            "0x0000000000000000000000004200000000000000000000000000000000000006"
          ],
          "data": "0x0000000000000000000000002dcfca9529a498b3bc2a13784eb4989365e768cc00000000000000000000000000000000000000000000000000000913a8bbfa1f",
          "blockHash": "0x0000000000000000000000000000000000000000000000000000000000000000",
          "blockNumber": "0x294e647",
          "blockTimestamp": "0x6a3d2b6e",
          "transactionHash": "0x6e9c4f97f09029b4ab7efca04b3a7f1d352ff6963c7e53fa7633d168b6b25191",
          "transactionIndex": "0x8",
          "logIndex": "0x3b",
          "removed": false
        },
        {
          "address": "0x05e73354cfdd6745c338b50bcfdfa3aa6fa03408",
          "topics": [
            "0x40e9cecb9f5f1f1c5b9c97dec2917b7ee92e57ba5563708daca94dd84ad7112f",
            "0x63ad078b7bb67cd2f05ef0793fee54f15bb08e59a27ce7161dbf7164feac63ed",
            "0x000000000000000000000000492e6456d9528771018deb9e87ef7750ef184104"
          ],
          "data": "0xffffffffffffffffffffffffffffffffffffffffffffffffffee459a70db7a1f000000000000000000000000000000000000000000295b4fbc7408a032a0a20500000000000000000000000000000000000188e0396e63bb04b78d54799b6a5100000000000000000000000000000000000000000000d262f663fdaa4522f9db00000000000000000000000000000000000000000000000000000000000383f00000000000000000000000000000000000000000000000000000000000002710",
          "blockHash": "0x0000000000000000000000000000000000000000000000000000000000000000",
          "blockNumber": "0x294e647",
          "blockTimestamp": "0x6a3d2b6e",
          "transactionHash": "0x6e9c4f97f09029b4ab7efca04b3a7f1d352ff6963c7e53fa7633d168b6b25191",
          "transactionIndex": "0x8",
          "logIndex": "0x3c",
          "removed": false
        },
        {
          "address": "0x4200000000000000000000000000000000000006",
          "topics": [
            "0xddf252ad1be2c89b69c2b068fc378daa952ba7f163c4a11628f55a4df523b3ef",
            "0x0000000000000000000000005ecc44faeb5e64d49d798162a8bb6c70d9424f41",
            "0x00000000000000000000000005e73354cfdd6745c338b50bcfdfa3aa6fa03408"
          ],
          "data": "0x0000000000000000000000000000000000000000000000000011c37937e08000",
          "blockHash": "0x0000000000000000000000000000000000000000000000000000000000000000",
          "blockNumber": "0x294e647",
          "blockTimestamp": "0x6a3d2b6e",
          "transactionHash": "0x6e9c4f97f09029b4ab7efca04b3a7f1d352ff6963c7e53fa7633d168b6b25191",
          "transactionIndex": "0x8",
          "logIndex": "0x3d",
          "removed": false
        },
        {
          "address": "0xb200000000000000000000fbc76c40195c0cd713",
          "topics": [
            "0xddf252ad1be2c89b69c2b068fc378daa952ba7f163c4a11628f55a4df523b3ef",
            "0x00000000000000000000000005e73354cfdd6745c338b50bcfdfa3aa6fa03408",
            "0x0000000000000000000000005ecc44faeb5e64d49d798162a8bb6c70d9424f41"
          ],
          "data": "0x000000000000000000000000000000000000000000295b4fbc7408a032a0a205",
          "blockHash": "0x0000000000000000000000000000000000000000000000000000000000000000",
          "blockNumber": "0x294e647",
          "blockTimestamp": "0x6a3d2b6e",
          "transactionHash": "0x6e9c4f97f09029b4ab7efca04b3a7f1d352ff6963c7e53fa7633d168b6b25191",
          "transactionIndex": "0x8",
          "logIndex": "0x3e",
          "removed": false
        }
      ],
      "logsBloom": "0x0020000200040001000000000020000000400000082000000004000000000000000000010040000004000010800000000000000014000000002a0800102000000000000000100000000000080000040000000000001000200000000000000100000000000200000000020000000008000400100000000000001000100000000000000000050400001000800000040000000090000020001000400000000000000200040040000000000000000000200004000020000000000000a004000000000800000200100400000000040010000000040a004000800000000000000020000010020000000000804100100800080004000000000000000100000004000000",
      "type": "0x2",
      "transactionHash": "0x6e9c4f97f09029b4ab7efca04b3a7f1d352ff6963c7e53fa7633d168b6b25191",
      "transactionIndex": "0x8",
      "blockHash": "0x0000000000000000000000000000000000000000000000000000000000000000",
      "blockNumber": "0x294e647",
      "gasUsed": "0x58f06",
      "effectiveGasPrice": "0x5b8d80",
      "blobGasUsed": "0x1a220",
      "from": "0x5ecc44faeb5e64d49d798162a8bb6c70d9424f41",
      "to": "0x492e6456d9528771018deb9e87ef7750ef184104",
      "contractAddress": null,
      "daFootprintGasScalar": "0x1be",
      "l1BaseFeeScalar": "0x44d",
      "l1BlobBaseFee": "0x3c06a30",
      "l1BlobBaseFeeScalar": "0xa118b",
      "l1Fee": "0x3c841b872",
      "l1GasPrice": "0x4359ad85",
      "l1GasUsed": "0xf0f"
    },
    {
      "status": "0x1",
      "cumulativeGasUsed": "0x5db413",
      "logs": [
        {
          "address": "0xb200000000000000000000fbc76c40195c0cd713",
          "topics": [
            "0x8c5be1e5ebec7d5bd14f71427d1e84f3dd0314c0f7b2291e5b200ac8c7c3b925",
            "0x0000000000000000000000005ecc44faeb5e64d49d798162a8bb6c70d9424f41",
            "0x000000000000000000000000000000000022d473030f116ddee9f6b43ac78ba3"
          ],
          "data": "0x00000000000000000000000000000000000000000014ada7de3a045019505102",
          "blockHash": "0x0000000000000000000000000000000000000000000000000000000000000000",
          "blockNumber": "0x294e648",
          "blockTimestamp": "0x6a3d2b70",
          "transactionHash": "0x7c2e024aad0c7032fcd84647da54b582386c5630d33ab3d2933884dd9eeba03a",
          "transactionIndex": "0xd",
          "logIndex": "0x11c",
          "removed": false
        }
      ],
      "logsBloom": "0x00000002000000000000000000000000004000000000000000000000000000000000000000400000000000000000000000000000800000000000000000200000000000000000000000004000000000000000000000000800000000000000000000000000000000000000000000000000040000000000000000000000000000000000000000000000000000000000000000000000000000000000000000000000020000000000000000000000000000000400000000000000000000000000000000000000000000000000000000000000000000000000000000000000000000000010000000000000800000000000000000000000000000000000000000000000",
      "type": "0x2",
      "transactionHash": "0x7c2e024aad0c7032fcd84647da54b582386c5630d33ab3d2933884dd9eeba03a",
      "transactionIndex": "0xd",
      "blockHash": "0x0000000000000000000000000000000000000000000000000000000000000000",
      "blockNumber": "0x294e648",
      "gasUsed": "0xb226",
      "effectiveGasPrice": "0x5b8d80",
      "blobGasUsed": "0xae38",
      "from": "0x5ecc44faeb5e64d49d798162a8bb6c70d9424f41",
      "to": "0xb200000000000000000000fbc76c40195c0cd713",
      "contractAddress": null,
      "daFootprintGasScalar": "0x1be",
      "l1BaseFeeScalar": "0x44d",
      "l1BlobBaseFee": "0x3c06a30",
      "l1BlobBaseFeeScalar": "0xa118b",
      "l1Fee": "0x16e320183",
      "l1GasPrice": "0x4359ad85",
      "l1GasUsed": "0x640"
    },
    {
      "status": "0x1",
      "cumulativeGasUsed": "0x926d05",
      "logs": [
        {
          "address": "0x000000000022d473030f116ddee9f6b43ac78ba3",
          "topics": [
            "0xda9fa7c1b00402c17d0161b249b1ab8bbec047c5a52207b9c112deffd817036b",
            "0x0000000000000000000000005ecc44faeb5e64d49d798162a8bb6c70d9424f41",
            "0x000000000000000000000000b200000000000000000000fbc76c40195c0cd713",
            "0x000000000000000000000000492e6456d9528771018deb9e87ef7750ef184104"
          ],
          "data": "0x00000000000000000000000000000000000000000014ada7de3a045019505102000000000000000000000000000000000000000000000000000000006a3d3964",
          "blockHash": "0x0000000000000000000000000000000000000000000000000000000000000000",
          "blockNumber": "0x294e649",
          "blockTimestamp": "0x6a3d2b72",
          "transactionHash": "0x507645944eff70a7c5ffbc9c04df35007c4efda71b819e2d19f85adc32ae422a",
          "transactionIndex": "0x14",
          "logIndex": "0xf1",
          "removed": false
        }
      ],
      "logsBloom": "0x00010002000400000000000000000000000000000000000000000000000000000000000000400000000000000000000000000000000000000000000000080000000000000000000000000000000000000000000000000000000000000000000000000000000000000002000000000000040000000000000000000000000000000020000000000000000000000000000000000000000000000000000000000000000000000000000000000000000000000000002000000000000080080000000000000000000000000000000000100000000000000000000040000000000000000000020000000000000000000000000000000000000000000000000000000400",
      "type": "0x2",
      "transactionHash": "0x507645944eff70a7c5ffbc9c04df35007c4efda71b819e2d19f85adc32ae422a",
      "transactionIndex": "0x14",
      "blockHash": "0x0000000000000000000000000000000000000000000000000000000000000000",
      "blockNumber": "0x294e649",
      "gasUsed": "0x7702",
      "effectiveGasPrice": "0x5b8d80",
      "blobGasUsed": "0xcd94",
      "from": "0x5ecc44faeb5e64d49d798162a8bb6c70d9424f41",
      "to": "0x000000000022d473030f116ddee9f6b43ac78ba3",
      "contractAddress": null,
      "daFootprintGasScalar": "0x1be",
      "l1BaseFeeScalar": "0x44d",
      "l1BlobBaseFee": "0x3c06a30",
      "l1BlobBaseFeeScalar": "0xa118b",
      "l1Fee": "0x16e320183",
      "l1GasPrice": "0x4359ad85",
      "l1GasUsed": "0x760"
    },
    {
      "status": "0x1",
      "cumulativeGasUsed": "0x4d01e4",
      "logs": [
        {
          "address": "0x05e73354cfdd6745c338b50bcfdfa3aa6fa03408",
          "topics": [
            "0x1b3d7edb2e9c0b0e7c525b20aaaef0f5940d2ed71663c7d39266ecafac728859",
            "0x0000000000000000000000002dcfca9529a498b3bc2a13784eb4989365e768cc",
            "0x0000000000000000000000000000000000000000000000000000000000000000",
            "0x0000000000000000000000004200000000000000000000000000000000000006"
          ],
          "data": "0x0000000000000000000000002dcfca9529a498b3bc2a13784eb4989365e768cc00000000000000000000000000000000000000000000000000000913a8bbfa1f",
          "blockHash": "0x0000000000000000000000000000000000000000000000000000000000000000",
          "blockNumber": "0x294e64a",
          "blockTimestamp": "0x6a3d2b74",
          "transactionHash": "0xcb5fbe16fbfb69111c4b1f1434500a7aa6605df3a2033053c81629cb5645bc34",
          "transactionIndex": "0x9",
          "logIndex": "0x8",
          "removed": false
        },
        {
          "address": "0x4200000000000000000000000000000000000006",
          "topics": [
            "0xddf252ad1be2c89b69c2b068fc378daa952ba7f163c4a11628f55a4df523b3ef",
            "0x00000000000000000000000005e73354cfdd6745c338b50bcfdfa3aa6fa03408",
            "0x000000000000000000000000db9457dad0d0691a56777a036e2d2b3d830d3da3"
          ],
          "data": "0x00000000000000000000000000000000000000000000000000000913a8bbfa1f",
          "blockHash": "0x0000000000000000000000000000000000000000000000000000000000000000",
          "blockNumber": "0x294e64a",
          "blockTimestamp": "0x6a3d2b74",
          "transactionHash": "0xcb5fbe16fbfb69111c4b1f1434500a7aa6605df3a2033053c81629cb5645bc34",
          "transactionIndex": "0x9",
          "logIndex": "0x9",
          "removed": false
        },
        {
          "address": "0x2dcfca9529a498b3bc2a13784eb4989365e768cc",
          "topics": [
            "0x175b790d44599ca70432cc8d1406504cb3a28fc13ff995c06dde6663412b211a",
            "0x0000000000000000000000004200000000000000000000000000000000000006"
          ],
          "data": "0x00000000000000000000000000000000000000000000000000000913a8bbfa1f",
          "blockHash": "0x0000000000000000000000000000000000000000000000000000000000000000",
          "blockNumber": "0x294e64a",
          "blockTimestamp": "0x6a3d2b74",
          "transactionHash": "0xcb5fbe16fbfb69111c4b1f1434500a7aa6605df3a2033053c81629cb5645bc34",
          "transactionIndex": "0x9",
          "logIndex": "0xa",
          "removed": false
        },
        {
          "address": "0x05e73354cfdd6745c338b50bcfdfa3aa6fa03408",
          "topics": [
            "0xf208f4912782fd25c7f114ca3723a2d5dd6f3bcc3ac8db5af63baa85f711d5ec",
            "0x63ad078b7bb67cd2f05ef0793fee54f15bb08e59a27ce7161dbf7164feac63ed",
            "0x0000000000000000000000004b2c77d209d3405f41a037ec6c77f7f5b8e2ca80"
          ],
          "data": "0xfffffffffffffffffffffffffffffffffffffffffffffffffffffffffff2766000000000000000000000000000000000000000000000000000000000000384000000000000000000000000000000000000000000000000000000000000000000000000000000000000000000000000000000000000000000000000000000639e",
          "blockHash": "0x0000000000000000000000000000000000000000000000000000000000000000",
          "blockNumber": "0x294e64a",
          "blockTimestamp": "0x6a3d2b74",
          "transactionHash": "0xcb5fbe16fbfb69111c4b1f1434500a7aa6605df3a2033053c81629cb5645bc34",
          "transactionIndex": "0x9",
          "logIndex": "0xb",
          "removed": false
        },
        {
          "address": "0x4200000000000000000000000000000000000006",
          "topics": [
            "0xddf252ad1be2c89b69c2b068fc378daa952ba7f163c4a11628f55a4df523b3ef",
            "0x00000000000000000000000005e73354cfdd6745c338b50bcfdfa3aa6fa03408",
            "0x00000000000000000000000090e580477a14be33344bab802b5f73d3ec501cbf"
          ],
          "data": "0x00000000000000000000000000000000000000000000000000002d624babe29e",
          "blockHash": "0x0000000000000000000000000000000000000000000000000000000000000000",
          "blockNumber": "0x294e64a",
          "blockTimestamp": "0x6a3d2b74",
          "transactionHash": "0xcb5fbe16fbfb69111c4b1f1434500a7aa6605df3a2033053c81629cb5645bc34",
          "transactionIndex": "0x9",
          "logIndex": "0xc",
          "removed": false
        },
        {
          "address": "0x4200000000000000000000000000000000000006",
          "topics": [
            "0x8c5be1e5ebec7d5bd14f71427d1e84f3dd0314c0f7b2291e5b200ac8c7c3b925",
            "0x00000000000000000000000090e580477a14be33344bab802b5f73d3ec501cbf",
            "0x0000000000000000000000009b5209c45393d73ad97a6c6c168d6ebad1dd959f"
          ],
          "data": "0x00000000000000000000000000000000000000000000000000002d624babe29e",
          "blockHash": "0x0000000000000000000000000000000000000000000000000000000000000000",
          "blockNumber": "0x294e64a",
          "blockTimestamp": "0x6a3d2b74",
          "transactionHash": "0xcb5fbe16fbfb69111c4b1f1434500a7aa6605df3a2033053c81629cb5645bc34",
          "transactionIndex": "0x9",
          "logIndex": "0xd",
          "removed": false
        },
        {
          "address": "0x4200000000000000000000000000000000000006",
          "topics": [
            "0xddf252ad1be2c89b69c2b068fc378daa952ba7f163c4a11628f55a4df523b3ef",
            "0x00000000000000000000000090e580477a14be33344bab802b5f73d3ec501cbf",
            "0x0000000000000000000000009b5209c45393d73ad97a6c6c168d6ebad1dd959f"
          ],
          "data": "0x00000000000000000000000000000000000000000000000000002d624babe29e",
          "blockHash": "0x0000000000000000000000000000000000000000000000000000000000000000",
          "blockNumber": "0x294e64a",
          "blockTimestamp": "0x6a3d2b74",
          "transactionHash": "0xcb5fbe16fbfb69111c4b1f1434500a7aa6605df3a2033053c81629cb5645bc34",
          "transactionIndex": "0x9",
          "logIndex": "0xe",
          "removed": false
        },
        {
          "address": "0x9b5209c45393d73ad97a6c6c168d6ebad1dd959f",
          "topics": [
            "0xadf5da7301d0edbace5767201c524369b56f4040e2eafc873897493fc466e35d",
            "0x00000000000000000000000090e580477a14be33344bab802b5f73d3ec501cbf",
            "0x0000000000000000000000005ecc44faeb5e64d49d798162a8bb6c70d9424f41",
            "0x0000000000000000000000004200000000000000000000000000000000000006"
          ],
          "data": "0x00000000000000000000000000000000000000000000000000005ac49757c53c00000000000000000000000000000000000000000000000000002d624babe29e",
          "blockHash": "0x0000000000000000000000000000000000000000000000000000000000000000",
          "blockNumber": "0x294e64a",
          "blockTimestamp": "0x6a3d2b74",
          "transactionHash": "0xcb5fbe16fbfb69111c4b1f1434500a7aa6605df3a2033053c81629cb5645bc34",
          "transactionIndex": "0x9",
          "logIndex": "0xf",
          "removed": false
        },
        {
          "address": "0x90e580477a14be33344bab802b5f73d3ec501cbf",
          "topics": [
            "0x21d15f71483b597e8f0009e83b90b2117f6f98c185d7173857dddcae5eb8546a",
            "0x000000000000000000000000b200000000000000000000fbc76c40195c0cd713"
          ],
          "data": "0x00000000000000000000000000000000000000000000000000002d624babe29e0000000000000000000000000000000000000000000000000000000000000000000000000000000000000000000000000000000000000000000000000000008000000000000000000000000000000000000000000000000000000000000000c0000000000000000000000000000000000000000000000000000000000000000100000000000000000000000000000000000000000000000000002d624babe29e00000000000000000000000000000000000000000000000000000000000000010000000000000000000000000000000000000000000000000000000000000000",
          "blockHash": "0x0000000000000000000000000000000000000000000000000000000000000000",
          "blockNumber": "0x294e64a",
          "blockTimestamp": "0x6a3d2b74",
          "transactionHash": "0xcb5fbe16fbfb69111c4b1f1434500a7aa6605df3a2033053c81629cb5645bc34",
          "transactionIndex": "0x9",
          "logIndex": "0x10",
          "removed": false
        },
        {
          "address": "0x05e73354cfdd6745c338b50bcfdfa3aa6fa03408",
          "topics": [
            "0x40e9cecb9f5f1f1c5b9c97dec2917b7ee92e57ba5563708daca94dd84ad7112f",
            "0x63ad078b7bb67cd2f05ef0793fee54f15bb08e59a27ce7161dbf7164feac63ed",
            "0x000000000000000000000000492e6456d9528771018deb9e87ef7750ef184104"
          ],
          "data": "0x0000000000000000000000000000000000000000000000000008b09a66e8a04dffffffffffffffffffffffffffffffffffffffffffeb525821c5fbafe6afaefe00000000000000000000000000000000000188f92260ee3062f5e34bc48cd3af00000000000000000000000000000000000000000000d262f663fdaa4522f9db00000000000000000000000000000000000000000000000000000000000383f50000000000000000000000000000000000000000000000000000000000002710",
          "blockHash": "0x0000000000000000000000000000000000000000000000000000000000000000",
          "blockNumber": "0x294e64a",
          "blockTimestamp": "0x6a3d2b74",
          "transactionHash": "0xcb5fbe16fbfb69111c4b1f1434500a7aa6605df3a2033053c81629cb5645bc34",
          "transactionIndex": "0x9",
          "logIndex": "0x11",
          "removed": false
        },
        {
          "address": "0x05e73354cfdd6745c338b50bcfdfa3aa6fa03408",
          "topics": [
            "0x1b3d7edb2e9c0b0e7c525b20aaaef0f5940d2ed71663c7d39266ecafac728859",
            "0x0000000000000000000000000000000000000000000000000000000000000000",
            "0x0000000000000000000000002dcfca9529a498b3bc2a13784eb4989365e768cc",
            "0x0000000000000000000000004200000000000000000000000000000000000006"
          ],
          "data": "0x0000000000000000000000002dcfca9529a498b3bc2a13784eb4989365e768cc00000000000000000000000000000000000000000000000000000472ff2e8b95",
          "blockHash": "0x0000000000000000000000000000000000000000000000000000000000000000",
          "blockNumber": "0x294e64a",
          "blockTimestamp": "0x6a3d2b74",
          "transactionHash": "0xcb5fbe16fbfb69111c4b1f1434500a7aa6605df3a2033053c81629cb5645bc34",
          "transactionIndex": "0x9",
          "logIndex": "0x12",
          "removed": false
        },
        {
          "address": "0xb200000000000000000000fbc76c40195c0cd713",
          "topics": [
            "0xddf252ad1be2c89b69c2b068fc378daa952ba7f163c4a11628f55a4df523b3ef",
            "0x0000000000000000000000005ecc44faeb5e64d49d798162a8bb6c70d9424f41",
            "0x00000000000000000000000005e73354cfdd6745c338b50bcfdfa3aa6fa03408"
          ],
          "data": "0x00000000000000000000000000000000000000000014ada7de3a045019505102",
          "blockHash": "0x0000000000000000000000000000000000000000000000000000000000000000",
          "blockNumber": "0x294e64a",
          "blockTimestamp": "0x6a3d2b74",
          "transactionHash": "0xcb5fbe16fbfb69111c4b1f1434500a7aa6605df3a2033053c81629cb5645bc34",
          "transactionIndex": "0x9",
          "logIndex": "0x13",
          "removed": false
        },
        {
          "address": "0x4200000000000000000000000000000000000006",
          "topics": [
            "0xddf252ad1be2c89b69c2b068fc378daa952ba7f163c4a11628f55a4df523b3ef",
            "0x00000000000000000000000005e73354cfdd6745c338b50bcfdfa3aa6fa03408",
            "0x0000000000000000000000005ecc44faeb5e64d49d798162a8bb6c70d9424f41"
          ],
          "data": "0x0000000000000000000000000000000000000000000000000008ac2767ba14b8",
          "blockHash": "0x0000000000000000000000000000000000000000000000000000000000000000",
          "blockNumber": "0x294e64a",
          "blockTimestamp": "0x6a3d2b74",
          "transactionHash": "0xcb5fbe16fbfb69111c4b1f1434500a7aa6605df3a2033053c81629cb5645bc34",
          "transactionIndex": "0x9",
          "logIndex": "0x14",
          "removed": false
        }
      ],
      "logsBloom": "0x0020000200040001000000000020000000400000082000000004000000000000000000010040000004000010800000000000000014000000002a0800102000000000000000100000000000080000040000000000001000200000000000000100000000000200000000020000000008000400100000000000001000100000000000000000050400001000800000040000000090000020001000400000000000000200040040000000000000000000200004000020000000000000a004000000000800000200100400000000040010000000040a004000800000000000000020000010020000000000804100100800080004000000000000000100000004000000",
      "type": "0x2",
      "transactionHash": "0xcb5fbe16fbfb69111c4b1f1434500a7aa6605df3a2033053c81629cb5645bc34",
      "transactionIndex": "0x9",
      "blockHash": "0x0000000000000000000000000000000000000000000000000000000000000000",
      "blockNumber": "0x294e64a",
      "gasUsed": "0x4c850",
      "effectiveGasPrice": "0x5b8d80",
      "blobGasUsed": "0x1a3de",
      "from": "0x5ecc44faeb5e64d49d798162a8bb6c70d9424f41",
      "to": "0x492e6456d9528771018deb9e87ef7750ef184104",
      "contractAddress": null,
      "daFootprintGasScalar": "0x1be",
      "l1BaseFeeScalar": "0x44d",
      "l1BlobBaseFee": "0x3e148f1",
      "l1BlobBaseFeeScalar": "0xa118b",
      "l1Fee": "0x5f9462c9c",
      "l1GasPrice": "0x404818fe",
      "l1GasUsed": "0xf1d"
    }
  ],
  "libraries": [],
  "pending": [],
  "returns": {},
  "timestamp": 1782393714768,
  "chain": 84532,
  "commit": "1b68886"
}