{
  "transactions": [
    {
      "hash": "0x986bcf1c42cd7beea410bf5b2f547385ac70a265796b7e7a489c3fe98f3f1eb4",
      "transactionType": "CALL",
      "contractName": null,
      "contractAddress": "0xdb9457dad0d0691a56777a036e2d2b3d830d3da3",
      "function": "deployToken(((address,string,string,bytes32,string,string,string,uint256),(address,address,int24,int24,bytes),(address,address[],address[],uint16[],int24[],int24[],uint16[],bytes),(address,bytes),(address,uint256,uint16,bytes)[]))",
      "arguments": [
        "((0x5Ecc44FAEb5E64d49D798162A8bB6c70d9424f41, Berry Live Test, BLT, 0x000000000000000000000000000000000000000000000000000000006a3d2864, , , , 84532), (0x2DCfcA9529A498B3bc2A13784EB4989365E768cc, 0x4200000000000000000000000000000000000006, -230400, 200, 0x00000000000000000000000000000000000000000000000000000000000000200000000000000000000000000000000000000000000000000000000000000000000000000000000000000000000000000000000000000000000000000000006000000000000000000000000000000000000000000000000000000000000000800000000000000000000000000000000000000000000000000000000000000000000000000000000000000000000000000000000000000000000000000000004000000000000000000000000000000000000000000000000000000000000027100000000000000000000000000000000000000000000000000000000000002710), (0x90E580477a14Be33344Bab802b5f73D3eC501cBF, [0x5Ecc44FAEb5E64d49D798162A8bB6c70d9424f41], [0x5Ecc44FAEb5E64d49D798162A8bB6c70d9424f41], [10000], [-230400], [887200], [10000], 0x), (0xE60C0a4B23ebe39f4629f8db7e1536fE91d4D80e, 0x), [])"
      ],
      "transaction": {
        "from": "0x5ecc44faeb5e64d49d798162a8bb6c70d9424f41",
        "to": "0xdb9457dad0d0691a56777a036e2d2b3d830d3da3",
        "gas": "0x1c950a",
        "value": "0x0",
        "input": "0xdf40224a000000000000000000000000000000000000000000000000000000000000002000000000000000000000000000000000000000000000000000000000000000a00000000000000000000000000000000000000000000000000000000000000280000000000000000000000000000000000000000000000000000000000000044000000000000000000000000000000000000000000000000000000000000006e000000000000000000000000000000000000000000000000000000000000007400000000000000000000000005ecc44faeb5e64d49d798162a8bb6c70d9424f4100000000000000000000000000000000000000000000000000000000000001000000000000000000000000000000000000000000000000000000000000000140000000000000000000000000000000000000000000000000000000006a3d2864000000000000000000000000000000000000000000000000000000000000018000000000000000000000000000000000000000000000000000000000000001a000000000000000000000000000000000000000000000000000000000000001c00000000000000000000000000000000000000000000000000000000000014a34000000000000000000000000000000000000000000000000000000000000000f4265727279204c697665205465737400000000000000000000000000000000000000000000000000000000000000000000000000000000000000000000000003424c5400000000000000000000000000000000000000000000000000000000000000000000000000000000000000000000000000000000000000000000000000000000000000000000000000000000000000000000000000000000000000000000000000000000000000000000000000000000000000000000000000000000000000000000000000000000002dcfca9529a498b3bc2a13784eb4989365e768cc0000000000000000000000004200000000000000000000000000000000000006fffffffffffffffffffffffffffffffffffffffffffffffffffffffffffc7c0000000000000000000000000000000000000000000000000000000000000000c800000000000000000000000000000000000000000000000000000000000000a000000000000000000000000000000000000000000000000000000000000001000000000000000000000000000000000000000000000000000000000000000020000000000000000000000000000000000000000000000000000000000000000000000000000000000000000000000000000000000000000000000000000000600000000000000000000000000000000000000000000000000000000000000080000000000000000000000000000000000000000000000000000000000000000000000000000000000000000000000000000000000000000000000000000000400000000000000000000000000000000000000000000000000000000000002710000000000000000000000000000000000000000000000000000000000000271000000000000000000000000090e580477a14be33344bab802b5f73d3ec501cbf00000000000000000000000000000000000000000000000000000000000001000000000000000000000000000000000000000000000000000000000000000140000000000000000000000000000000000000000000000000000000000000018000000000000000000000000000000000000000000000000000000000000001c000000000000000000000000000000000000000000000000000000000000002000000000000000000000000000000000000000000000000000000000000000240000000000000000000000000000000000000000000000000000000000000028000000000000000000000000000000000000000000000000000000000000000010000000000000000000000005ecc44faeb5e64d49d798162a8bb6c70d9424f4100000000000000000000000000000000000000000000000000000000000000010000000000000000000000005ecc44faeb5e64d49d798162a8bb6c70d9424f41000000000000000000000000000000000000000000000000000000000000000100000000000000000000000000000000000000000000000000000000000027100000000000000000000000000000000000000000000000000000000000000001fffffffffffffffffffffffffffffffffffffffffffffffffffffffffffc7c00000000000000000000000000000000000000000000000000000000000000000100000000000000000000000000000000000000000000000000000000000d89a0000000000000000000000000000000000000000000000000000000000000000100000000000000000000000000000000000000000000000000000000000027100000000000000000000000000000000000000000000000000000000000000000000000000000000000000000e60c0a4b23ebe39f4629f8db7e1536fe91d4d80e000000000000000000000000000000000000000000000000000000000000004000000000000000000000000000000000000000000000000000000000000000000000000000000000000000000000000000000000000000000000000000000000",
        "nonce": "0xd",
        "chainId": "0x14a34"
      },
      "additionalContracts": [],
      "isFixedGasLimit": false
    }
  ],
  "receipts": [
    {
      "status": "0x1",
      "cumulativeGasUsed": "0x23e246",
      "logs": [
        {
          "address": "0xb20f000000000000000000000000000000000000",
          "topics": [
            "0xfd9bf2730513a1709722ff379a0844dfd8f997d600693c2bcc659e188bbdba0d",
            "0x000000000000000000000000b200000000000000000000fbc76c40195c0cd713",
            "0x0000000000000000000000000000000000000000000000000000000000000000"
          ],
          "data": "0x000000000000000000000000000000000000000000000000000000000000008000000000000000000000000000000000000000000000000000000000000000c000000000000000000000000000000000000000000000000000000000000000120000000000000000000000000000000000000000000000000000000000000100000000000000000000000000000000000000000000000000000000000000000f4265727279204c697665205465737400000000000000000000000000000000000000000000000000000000000000000000000000000000000000000000000003424c5400000000000000000000000000000000000000000000000000000000000000000000000000000000000000000000000000000000000000000000000000",
          "blockHash": "0x0000000000000000000000000000000000000000000000000000000000000000",
          "blockNumber": "0x294e4cf",
          "blockTimestamp": "0x6a3d287e",
          "transactionHash": "0x986bcf1c42cd7beea410bf5b2f547385ac70a265796b7e7a489c3fe98f3f1eb4",
          "transactionIndex": "0x4",
          "logIndex": "0x38",
          "removed": false
        },
        {
          "address": "0xb200000000000000000000fbc76c40195c0cd713",
          "topics": [
            "0x2f8788117e7eff1d82e926ec794901d17c78024a50270940304540a733656f0d",
            "0x0000000000000000000000000000000000000000000000000000000000000000",
            "0x0000000000000000000000005ecc44faeb5e64d49d798162a8bb6c70d9424f41",
            "0x000000000000000000000000b20f000000000000000000000000000000000000"
          ],
          "data": "0x",
          "blockHash": "0x0000000000000000000000000000000000000000000000000000000000000000",
          "blockNumber": "0x294e4cf",
          "blockTimestamp": "0x6a3d287e",
          "transactionHash": "0x986bcf1c42cd7beea410bf5b2f547385ac70a265796b7e7a489c3fe98f3f1eb4",
          "transactionIndex": "0x4",
          "logIndex": "0x39",
          "removed": false
        },
        {
          "address": "0xb200000000000000000000fbc76c40195c0cd713",
          "topics": [
            "0xddf252ad1be2c89b69c2b068fc378daa952ba7f163c4a11628f55a4df523b3ef",
            "0x0000000000000000000000000000000000000000000000000000000000000000",
            "0x000000000000000000000000db9457dad0d0691a56777a036e2d2b3d830d3da3"
          ],
          "data": "0x0000000000000000000000000000000000000001431e0fae6d7217caa0000000",
          "blockHash": "0x0000000000000000000000000000000000000000000000000000000000000000",
          "blockNumber": "0x294e4cf",
          "blockTimestamp": "0x6a3d287e",
          "transactionHash": "0x986bcf1c42cd7beea410bf5b2f547385ac70a265796b7e7a489c3fe98f3f1eb4",
          "transactionIndex": "0x4",
          "logIndex": "0x3a",
          "removed": false
        },
        {
          "address": "0x05e73354cfdd6745c338b50bcfdfa3aa6fa03408",
          "topics": [
            "0xdd466e674ea557f56295e2d0218a125ea4b4f0f6f3307b95f85e6110838d6438",
            "0x63ad078b7bb67cd2f05ef0793fee54f15bb08e59a27ce7161dbf7164feac63ed",
            "0x0000000000000000000000004200000000000000000000000000000000000006",
            "0x000000000000000000000000b200000000000000000000fbc76c40195c0cd713"
          ],
          "data": "0x000000000000000000000000000000000000000000000000000000000080000000000000000000000000000000000000000000000000000000000000000000c80000000000000000000000002dcfca9529a498b3bc2a13784eb4989365e768cc000000000000000000000000000000000001892bf93719f13782793d830c6bcc0000000000000000000000000000000000000000000000000000000000038400",
          "blockHash": "0x0000000000000000000000000000000000000000000000000000000000000000",
          "blockNumber": "0x294e4cf",
          "blockTimestamp": "0x6a3d287e",
          "transactionHash": "0x986bcf1c42cd7beea410bf5b2f547385ac70a265796b7e7a489c3fe98f3f1eb4",
          "transactionIndex": "0x4",
          "logIndex": "0x3b",
          "removed": false
        },
        {
          "address": "0x2dcfca9529a498b3bc2a13784eb4989365e768cc",
          "topics": [
            "0xde0cc41485843685947cd8856be361f8038580ba3916da280a9e36d8cc499982"
          ],
          "data": "0x63ad078b7bb67cd2f05ef0793fee54f15bb08e59a27ce7161dbf7164feac63ed00000000000000000000000000000000000000000000000000000000000027100000000000000000000000000000000000000000000000000000000000002710",
          "blockHash": "0x0000000000000000000000000000000000000000000000000000000000000000",
          "blockNumber": "0x294e4cf",
          "blockTimestamp": "0x6a3d287e",
          "transactionHash": "0x986bcf1c42cd7beea410bf5b2f547385ac70a265796b7e7a489c3fe98f3f1eb4",
          "transactionIndex": "0x4",
          "logIndex": "0x3c",
          "removed": false
        },
        {
          "address": "0x2dcfca9529a498b3bc2a13784eb4989365e768cc",
          "topics": [
            "0xc2cc0ae95873d7fa4e50998bc075ab443517931580a05c3f76d9fc983c666a5c",
            "0x0000000000000000000000004200000000000000000000000000000000000006",
            "0x000000000000000000000000b200000000000000000000fbc76c40195c0cd713"
          ],
          "data": "0x63ad078b7bb67cd2f05ef0793fee54f15bb08e59a27ce7161dbf7164feac63edfffffffffffffffffffffffffffffffffffffffffffffffffffffffffffc7c0000000000000000000000000000000000000000000000000000000000000000c800000000000000000000000090e580477a14be33344bab802b5f73d3ec501cbf000000000000000000000000e60c0a4b23ebe39f4629f8db7e1536fe91d4d80e",
          "blockHash": "0x0000000000000000000000000000000000000000000000000000000000000000",
          "blockNumber": "0x294e4cf",
          "blockTimestamp": "0x6a3d287e",
          "transactionHash": "0x986bcf1c42cd7beea410bf5b2f547385ac70a265796b7e7a489c3fe98f3f1eb4",
          "transactionIndex": "0x4",
          "logIndex": "0x3d",
          "removed": false
        },
        {
          "address": "0x2dcfca9529a498b3bc2a13784eb4989365e768cc",
          "topics": [
            "0x5da295020d1815e72a1c7edab0a1441cc519104e4eafca359c3b01c76feadf07",
            "0x63ad078b7bb67cd2f05ef0793fee54f15bb08e59a27ce7161dbf7164feac63ed",
            "0x0000000000000000000000000000000000000000000000000000000000000000"
          ],
          "data": "0x",
          "blockHash": "0x0000000000000000000000000000000000000000000000000000000000000000",
          "blockNumber": "0x294e4cf",
          "blockTimestamp": "0x6a3d287e",
          "transactionHash": "0x986bcf1c42cd7beea410bf5b2f547385ac70a265796b7e7a489c3fe98f3f1eb4",
          "transactionIndex": "0x4",
          "logIndex": "0x3e",
          "removed": false
        },
        {
          "address": "0xb200000000000000000000fbc76c40195c0cd713",
          "topics": [
            "0x8c5be1e5ebec7d5bd14f71427d1e84f3dd0314c0f7b2291e5b200ac8c7c3b925",
            "0x000000000000000000000000db9457dad0d0691a56777a036e2d2b3d830d3da3",
            "0x00000000000000000000000090e580477a14be33344bab802b5f73d3ec501cbf"
          ],
          "data": "0x0000000000000000000000000000000000000001431e0fae6d7217caa0000000",
          "blockHash": "0x0000000000000000000000000000000000000000000000000000000000000000",
          "blockNumber": "0x294e4cf",
          "blockTimestamp": "0x6a3d287e",
          "transactionHash": "0x986bcf1c42cd7beea410bf5b2f547385ac70a265796b7e7a489c3fe98f3f1eb4",
          "transactionIndex": "0x4",
          "logIndex": "0x3f",
          "removed": false
        },
        {
          "address": "0xb200000000000000000000fbc76c40195c0cd713",
          "topics": [
            "0xddf252ad1be2c89b69c2b068fc378daa952ba7f163c4a11628f55a4df523b3ef",
            "0x000000000000000000000000db9457dad0d0691a56777a036e2d2b3d830d3da3",
            "0x00000000000000000000000090e580477a14be33344bab802b5f73d3ec501cbf"
          ],
          "data": "0x0000000000000000000000000000000000000001431e0fae6d7217caa0000000",
          "blockHash": "0x0000000000000000000000000000000000000000000000000000000000000000",
          "blockNumber": "0x294e4cf",
          "blockTimestamp": "0x6a3d287e",
          "transactionHash": "0x986bcf1c42cd7beea410bf5b2f547385ac70a265796b7e7a489c3fe98f3f1eb4",
          "transactionIndex": "0x4",
          "logIndex": "0x40",
          "removed": false
        },
        {
          "address": "0xb200000000000000000000fbc76c40195c0cd713",
          "topics": [
            "0x8c5be1e5ebec7d5bd14f71427d1e84f3dd0314c0f7b2291e5b200ac8c7c3b925",
            "0x00000000000000000000000090e580477a14be33344bab802b5f73d3ec501cbf",
            "0x000000000000000000000000000000000022d473030f116ddee9f6b43ac78ba3"
          ],
          "data": "0x0000000000000000000000000000000000000001431e0fae6d7217caa0000000",
          "blockHash": "0x0000000000000000000000000000000000000000000000000000000000000000",
          "blockNumber": "0x294e4cf",
          "blockTimestamp": "0x6a3d287e",
          "transactionHash": "0x986bcf1c42cd7beea410bf5b2f547385ac70a265796b7e7a489c3fe98f3f1eb4",
          "transactionIndex": "0x4",
          "logIndex": "0x41",
          "removed": false
        },
        {
          "address": "0x000000000022d473030f116ddee9f6b43ac78ba3",
          "topics": [
            "0xda9fa7c1b00402c17d0161b249b1ab8bbec047c5a52207b9c112deffd817036b",
            "0x00000000000000000000000090e580477a14be33344bab802b5f73d3ec501cbf",
            "0x000000000000000000000000b200000000000000000000fbc76c40195c0cd713",
            "0x0000000000000000000000004b2c77d209d3405f41a037ec6c77f7f5b8e2ca80"
          ],
          "data": "0x0000000000000000000000000000000000000001431e0fae6d7217caa0000000000000000000000000000000000000000000000000000000000000006a3d287e",
          "blockHash": "0x0000000000000000000000000000000000000000000000000000000000000000",
          "blockNumber": "0x294e4cf",
          "blockTimestamp": "0x6a3d287e",
          "transactionHash": "0x986bcf1c42cd7beea410bf5b2f547385ac70a265796b7e7a489c3fe98f3f1eb4",
          "transactionIndex": "0x4",
          "logIndex": "0x42",
          "removed": false
        },
        {
          "address": "0x4b2c77d209d3405f41a037ec6c77f7f5b8e2ca80",
          "topics": [
            "0xddf252ad1be2c89b69c2b068fc378daa952ba7f163c4a11628f55a4df523b3ef",
            "0x0000000000000000000000000000000000000000000000000000000000000000",
            "0x00000000000000000000000090e580477a14be33344bab802b5f73d3ec501cbf",
            "0x000000000000000000000000000000000000000000000000000000000000639e"
          ],
          "data": "0x",
          "blockHash": "0x0000000000000000000000000000000000000000000000000000000000000000",
          "blockNumber": "0x294e4cf",
          "blockTimestamp": "0x6a3d287e",
          "transactionHash": "0x986bcf1c42cd7beea410bf5b2f547385ac70a265796b7e7a489c3fe98f3f1eb4",
          "transactionIndex": "0x4",
          "logIndex": "0x43",
          "removed": false
        },
        {
          "address": "0x05e73354cfdd6745c338b50bcfdfa3aa6fa03408",
          "topics": [
            "0xf208f4912782fd25c7f114ca3723a2d5dd6f3bcc3ac8db5af63baa85f711d5ec",
            "0x63ad078b7bb67cd2f05ef0793fee54f15bb08e59a27ce7161dbf7164feac63ed",
            "0x0000000000000000000000004b2c77d209d3405f41a037ec6c77f7f5b8e2ca80"
          ],
          "data": "0xfffffffffffffffffffffffffffffffffffffffffffffffffffffffffff27660000000000000000000000000000000000000000000000000000000000003840000000000000000000000000000000000000000000000d262f663fdaa4522f9db000000000000000000000000000000000000000000000000000000000000639e",
          "blockHash": "0x0000000000000000000000000000000000000000000000000000000000000000",
          "blockNumber": "0x294e4cf",
          "blockTimestamp": "0x6a3d287e",
          "transactionHash": "0x986bcf1c42cd7beea410bf5b2f547385ac70a265796b7e7a489c3fe98f3f1eb4",
          "transactionIndex": "0x4",
          "logIndex": "0x44",
          "removed": false
        },
        {
          "address": "0xb200000000000000000000fbc76c40195c0cd713",
          "topics": [
            "0xddf252ad1be2c89b69c2b068fc378daa952ba7f163c4a11628f55a4df523b3ef",
            "0x00000000000000000000000090e580477a14be33344bab802b5f73d3ec501cbf",
            "0x00000000000000000000000005e73354cfdd6745c338b50bcfdfa3aa6fa03408"
          ],
          "data": "0x0000000000000000000000000000000000000001431e0fae6d7217ca9fff933b",
          "blockHash": "0x0000000000000000000000000000000000000000000000000000000000000000",
          "blockNumber": "0x294e4cf",
          "blockTimestamp": "0x6a3d287e",
          "transactionHash": "0x986bcf1c42cd7beea410bf5b2f547385ac70a265796b7e7a489c3fe98f3f1eb4",
          "transactionIndex": "0x4",
          "logIndex": "0x45",
          "removed": false
        },
        {
          "address": "0x90e580477a14be33344bab802b5f73d3ec501cbf",
          "topics": [
            "0xc9b03d1b68674b3ca5738b69c14e4dbcfcb7f474303edd540b1d7dfa785d27ff"
          ],
          "data": "0x000000000000000000000000b200000000000000000000fbc76c40195c0cd7130000000000000000000000004200000000000000000000000000000000000006000000000000000000000000b200000000000000000000fbc76c40195c0cd713000000000000000000000000000000000000000000000000000000000080000000000000000000000000000000000000000000000000000000000000000000c80000000000000000000000002dcfca9529a498b3bc2a13784eb4989365e768cc0000000000000000000000000000000000000001431e0fae6d7217caa0000000000000000000000000000000000000000000000000000000000000000000639e000000000000000000000000000000000000000000000000000000000000000100000000000000000000000000000000000000000000000000000000000001e00000000000000000000000000000000000000000000000000000000000000220000000000000000000000000000000000000000000000000000000000000026000000000000000000000000000000000000000000000000000000000000002a000000000000000000000000000000000000000000000000000000000000002e000000000000000000000000000000000000000000000000000000000000003200000000000000000000000000000000000000000000000000000000000000001000000000000000000000000000000000000000000000000000000000000271000000000000000000000000000000000000000000000000000000000000000010000000000000000000000005ecc44faeb5e64d49d798162a8bb6c70d9424f4100000000000000000000000000000000000000000000000000000000000000010000000000000000000000005ecc44faeb5e64d49d798162a8bb6c70d9424f410000000000000000000000000000000000000000000000000000000000000001fffffffffffffffffffffffffffffffffffffffffffffffffffffffffffc7c00000000000000000000000000000000000000000000000000000000000000000100000000000000000000000000000000000000000000000000000000000d89a000000000000000000000000000000000000000000000000000000000000000010000000000000000000000000000000000000000000000000000000000002710",
          "blockHash": "0x0000000000000000000000000000000000000000000000000000000000000000",
          "blockNumber": "0x294e4cf",
          "blockTimestamp": "0x6a3d287e",
          "transactionHash": "0x986bcf1c42cd7beea410bf5b2f547385ac70a265796b7e7a489c3fe98f3f1eb4",
          "transactionIndex": "0x4",
          "logIndex": "0x46",
          "removed": false
        },
        {
          "address": "0xdb9457dad0d0691a56777a036e2d2b3d830d3da3",
          "topics": [
            "0x9299d1d1a88d8e1abdc591ae7a167a6bc63a8f17d695804e9091ee33aa89fb67",
            "0x000000000000000000000000b200000000000000000000fbc76c40195c0cd713",
            "0x0000000000000000000000005ecc44faeb5e64d49d798162a8bb6c70d9424f41"
          ],
          "data": "0x0000000000000000000000005ecc44faeb5e64d49d798162a8bb6c70d9424f4100000000000000000000000000000000000000000000000000000000000001c000000000000000000000000000000000000000000000000000000000000001e0000000000000000000000000000000000000000000000000000000000000022000000000000000000000000000000000000000000000000000000000000002600000000000000000000000000000000000000000000000000000000000000280fffffffffffffffffffffffffffffffffffffffffffffffffffffffffffc7c000000000000000000000000002dcfca9529a498b3bc2a13784eb4989365e768cc63ad078b7bb67cd2f05ef0793fee54f15bb08e59a27ce7161dbf7164feac63ed000000000000000000000000420000000000000000000000000000000000000600000000000000000000000090e580477a14be33344bab802b5f73d3ec501cbf000000000000000000000000e60c0a4b23ebe39f4629f8db7e1536fe91d4d80e000000000000000000000000000000000000000000000000000000000000000000000000000000000000000000000000000000000000000000000000000002a00000000000000000000000000000000000000000000000000000000000000000000000000000000000000000000000000000000000000000000000000000000f4265727279204c697665205465737400000000000000000000000000000000000000000000000000000000000000000000000000000000000000000000000003424c540000000000000000000000000000000000000000000000000000000000000000000000000000000000000000000000000000000000000000000000000000000000000000000000000000000000000000000000000000000000000000000000000000000000000000000000000000000000000000000000000000000000",
          "blockHash": "0x0000000000000000000000000000000000000000000000000000000000000000",
          "blockNumber": "0x294e4cf",
          "blockTimestamp": "0x6a3d287e",
          "transactionHash": "0x986bcf1c42cd7beea410bf5b2f547385ac70a265796b7e7a489c3fe98f3f1eb4",
          "transactionIndex": "0x4",
          "logIndex": "0x47",
          "removed": false
        }
      ],
      "logsBloom": "0x000100060000000100000000002000000040000008000080000000000000000001000001004400080400000080000004000000009000008200280000102808000000000002100200000040080000000000010000001008000020100080000000000000000200000000000000000008000400100200000000000000120000000000200200050400091000020000040000001080010000200000400000002000000200040040000000000000000000000004000024200000000010800c00000000000000060010040000000004081000000000000000008001402000c0004020000010000000001000800100000800000004000100000000000000020004000400",
      "type": "0x2",
      "transactionHash": "0x986bcf1c42cd7beea410bf5b2f547385ac70a265796b7e7a489c3fe98f3f1eb4",
      "transactionIndex": "0x4",
      "blockHash": "0x0000000000000000000000000000000000000000000000000000000000000000",
      "blockNumber": "0x294e4cf",
      "gasUsed": "0x138b1b",
      "effectiveGasPrice": "0x5b8d80",
      "blobGasUsed": "0x29984",
      "from": "0x5ecc44faeb5e64d49d798162a8bb6c70d9424f41",
      "to": "0xdb9457dad0d0691a56777a036e2d2b3d830d3da3",
      "contractAddress": null,
      "daFootprintGasScalar": "0x1be",
      "l1BaseFeeScalar": "0x44d",
      "l1BlobBaseFee": "0x3ab1bef",
      "l1BlobBaseFeeScalar": "0xa118b",
      "l1Fee": "0x5327b8f92",
      "l1GasPrice": "0x3c1f1308",
      "l1GasUsed": "0x17e5"
    }
  ],
  "libraries": [],
  "pending": [],
  "returns": {},
  "timestamp": 1782392956559,
  "chain": 84532,
  "commit": "1b68886"
}